:020000040801F1
:10000000F04D0120A10101083572010811650108B8
:1000100031720108FD0E01087BB8010800000000E4
:10002000000000000000000000000000A7AF010871
:10003000D93F010800000000217B01087DB40108C0
:10004000BB010108BB010108BB010108BB0101089C
:10005000BB010108BB010108BB010108BB0101088C
:10006000BB01010899460108BB010108BB01010859
:10007000BB010108BB010108BB010108BB0101086C
:10008000BB010108BB010108BB010108BB0101085C
:1000900041200108BB010108BB010108BB010108A7
:1000A000BB010108BB010108BB010108BB0101083C
:1000B000BB010108BB010108BB010108BB0101082C
:1000C000BB010108BB010108BB010108BB0101081C
:1000D000BB010108E9B50108BB01010899B6010897
:1000E000BB010108BB010108BB010108BB010108FC
:1000F000BB010108BB010108BB010108BB010108EC
:10010000BB01010865940108BB010108BB0101089E
:10011000BB010108BB010108BB010108BB010108CB
:10012000BB010108BB010108BB010108853D0108B5
:10013000BB010108D5450108BB010108BB0101084D
:10014000BB010108BB010108BB010108BB0101089B
:10015000BB010108BB010108BB010108BB0101088B
:10016000BB010108BB010108BB010108BB0101087B
:10017000BB010108BB010108BB010108BB0101086B
:10018000BB010108BB010108DFF810D000F092FEAE
:1001900000480047C16D0208AFF30080F04D012018
:1001A0000648804706480047FEE7FEE7FEE7FEE711
:1001B000FEE7FEE7FEE7FEE7FEE7FEE781B50108A2
:1001C000890101082DE9F05F0546002092469B4613
:1001D00088460646814640241BE02846414647465D
:1001E000224600F01CFB53465A46C01A914110D3D8
:1001F00011461846224600F003FB2D1A67EB010852
:100200004F4622460120002100F0FAFA17EB0009C0
:100210004E41201EA4F10104DFDC484631462A4647
:100220004346BDE8F09F40EA01039B0703D009E085
:1002300008C9121F08C0042AFAD203E011F8013BD2
:1002400000F8013B521EF9D27047D2B201E000F82B
:10025000012B491EFBD270470022F6E710B513466A
:100260000A4604461946FFF7F0FF204610BD421E1D
:1002700012F8013F002BFBD111F8013B02F8013BC2
:10028000002BF9D1704730B505462A460B4612F8C7
:10029000010B13F8014B08B1A042F8D01CB10028A3
:1002A00002D06D1CF1E7284630BDCAB2401E10F8DE
:1002B000011F8A4202D00029F9D100207047421C58
:1002C00010F8011B0029FBD1801A7047034611F872
:1002D000012B00F8012B002AF9D1184670470000C5
:1002E00070B50F4D00B92868002412E00A4602E0FC
:1002F0009E4203D0521C1378002BF9D1DAB222436C
:1003000005D02BB124B1002100F8011B04E0044604
:10031000401C0678002EE9D12860204670BD000000
:100320002C0F002070B506460BF056FB04680546FE
:100330000A220021304600F0C1FC2C6070BD2DE97E
:10034000FE4F804681EA0300C00F0C46009021F06A
:10035000004123F00045B8EB0200A94105D2404618
:10036000214690461C460B46024623F000401043AF
:1003700047D0270DC7F30A00C3F30A510290401A71
:10038000019040286BDAC3F3130040F4801B0098FF
:10039000924620B10023D2EB030A63EB0B0B0198CA
:1003A0005946C0F14002504600F02AFA06460D4672
:1003B00050465946019A00F042FA10EB080061419C
:1003C000002487EA115284EAE7731A4340D0009A66
:1003D00062B3019A012A4FEA075215DC001B61EB58
:1003E00002014FF0004202EA0752CDE90042001C30
:1003F00041F5801132462B4600F0DEFC03B0BDE82B
:10040000F08F40462146F9E7001B61EB0201001C1A
:1004100041F5801300185B412018A2F5001747EB47
:10042000030140EAD570B6196D4111E06D084FEA3D
:10043000360645EAC0754FEA0752001B61EB020120
:10044000001C41F5801149084FEA30000019514164
:1004500032462B4603B0BDE8F04F00F09EBC00983A
:10046000012240000023D0EB020263EBE07300980E
:1004700021464FEAE074B8EB000061EB0401E9E7C4
:1004800083F000435BE781F0004158E72DE9FE4F20
:1004900081EA030404F0004421F0004100944FF08D
:1004A000000B23F0004350EA01045ED052EA03043B
:1004B0005BD0C3F30A54C1F30A552C44A4F2F334BD
:1004C0000194A0FB0254C1F3130141F48011C3F362
:1004D000130343F4801301FB024400FB034E840A20
:1004E000970A44EA815447EA8357A4FB07680295B8
:1004F0008D0A05FB07854FEA932C04FB0C54270556
:10050000029D4FEA065847EA1637B5EB08056EEB31
:10051000070C870E920E47EA811742EA8312A7FB67
:100520000201B6EB0B0164EB00042B0D43EA0C3324
:100530005E1844EB1C50DA465146E7FB0201C5F356
:1005400013044FEA0B3343EA14534FEA0432019C7D
:1005500043EA0603A4F10C040294009CCDE900B424
:1005600000F02AFC03B0BDE8F08F00200146F9E757
:100570002DE9F04D81EA030404F0004B21F0004521
:1005800014464FF0000A23F0004150EA050220D043
:1005900054EA01021DD0C5F30A570246C5F31303FE
:1005A000C1F31300C1F30A5640F4801543F48013DD
:1005B000A7EB0608101BD64608F2FD3873EB0500C2
:1005C00002D308F1010801E092185B41B8F1000F75
:1005D00003DA00200146BDE8F08D00204FF48011C1
:1005E000064684460EE0171B73EB050705D3121B66
:1005F00063EB050306434CEA010C49084FEA30005F
:1006000092185B4150EA0107EDD152EA030012D083
:1006100082EA040083EA0501084305D0101BAB41C0
:1006200006D20122002306E000224FF0004302E040
:100630006FF0010253101AEB06004CEB085110EB5F
:100640000A0041EB0B01BDE8F04D00F0A6BB30B451
:10065000044696230800214604D0B62330BC00226D
:1006600000F06DBB20460021F8E70EB5C10F80EA0F
:10067000E0700844CA07002140F233438DE80E00C1
:100680000A460B4600F098FB03B000BD0EB540F2E1
:10069000334102910021CDE900110A460B4600F0DA
:1006A0008BFB03B000BD70B5C1F30A5201F00045E9
:1006B0000024C1F3130140F2FF3341F480119A4248
:1006C00001DA002070BD40F233439A42A2F2334275
:1006D00003DC524200F0A3F800E090402C43F1D03C
:1006E000404270BDC1F30A5210B5C1F3130140F28C
:1006F000FF3341F480119A4201DA002010BD40F22C
:1007000033439A42A2F2334203DC524200F087F8AC
:1007100010BD904010BD00F0004230F000400AD003
:10072000C10D01F56071C0F3160042EA0151C20823
:1007300040071143704700200146704730B5041E42
:1007400071F1000404DB4FF00044404264EB01010E
:10075000141E73F1000405DB1C464FF000435242A7
:1007600063EB04038B4208BF824230BD30B5041EE8
:1007700071F1000404DB4FF00044404264EB0101DE
:10078000141E73F1000405DB1C464FF00043524277
:1007900063EB0403994208BF904230BD01F000436F
:1007A00030B421F0004150EA010206D00A0DA2F552
:1007B0006072C1F31301002A02DC30BC00207047D4
:1007C000440F44EAC104C100E01830BC00EBC25041
:1007D00000F0ACBA30B50B460146002020220124BF
:1007E00009E021FA02F59D4205D303FA02F5491BFF
:1007F00004FA02F52844151EA2F10102F1DC30BD15
:10080000202A04DB203A00FA02F1002070479140D0
:10081000C2F1200320FA03F3194390407047202AC5
:1008200004DB203A21FA02F00021704721FA02F39A
:10083000D040C2F120029140084319467047202A57
:1008400006DBCB17203A41FA02F043EAE07306E0F8
:1008500041FA02F3D040C2F1200291400843194608
:1008600070473A2800D2303820F02002412A01D3C4
:10087000A2F13700884201D34FF0FF3070470000EB
:100880002DE9FF4F087883B09946FF2805D0491C11
:100890002D2804D00024002008E000200BE00124D3
:1008A000F9E700EB800003EB4000491C0B78FF2BBD
:1008B000F7D104B1404200230293147819461D4633
:1008C0002D2C01D02B2C04D1521C2D2C13D0002404
:1008D0000294AA461478FF2C0FD00A25A3FB0578B2
:1008E00001FB05814FF0000C03FB0C11521CE319B6
:1008F0004AEB0101EEE70124EAE7814453EA0100F3
:1009000002D019F5C87F06DA03980021C0E900116A
:1009100007B0BDE8F08F0025AE4E2F46DFF8B88255
:10092000184600F03CFCCDE90001B9F1000002DA04
:10093000C9F1000400E004460023A74A1AEB030BA8
:1009400042EB045A12E0E00707D02A463346384605
:100950004146FFF79BFD074688462A463346104628
:100960001946FFF793FD05460E466410002CEAD1A8
:10097000DDE90001B9F1000F5A46534606DAFFF7E8
:10098000F7FD3A464346FFF7F3FD05E0FFF77EFD2E
:100990003A464346FFF77AFD029A0AB181F00041D8
:1009A000039AC2E90001B3E72DE9FF4F1F468DB05E
:1009B000D7E901464FF0FF382E2045464FF0000999
:1009C0000B90B9696D1C0E988847396A8246884732
:1009D0000028F6D1BAF1FF3F0AD024F4D064002EEB
:1009E00011DDBAF12B0F08D0BAF12D0F0BD102E0B7
:1009F000404611B08DE744F48064B9696D1C0E98CF
:100A000088478246761E6946600501D52D2000E0A4
:100A10002B208DF8000001F1010B0DF1200809E0F9
:100A2000B9696D1C0E98884782460F9844F400748B
:100A3000761E0560002E02DDBAF1300FF0D00B9962
:100A40008A453ED144F0800406E00F99681CA9F164
:100A5000010944F400740860B9696D1C761E0E9893
:100A6000884782463028F0D02BE00B998A4505D183
:100A7000200603D444F08004761E18E050460CF0A3
:100A8000C9FA08B30DF11301761E44F400748B45C6
:100A900008D2AAF130000BF8010B200607D5A9F106
:100AA000010003E0200602D409F101008146A005FF
:100AB00002D50F99681C0860B9696D1C0E988847AB
:100AC0008246002ED1DC53E0002E51DDBAF1650FD5
:100AD00002D0BAF1450F4BD1A00549D5B9696D1CBB
:100AE00024F44074761E0E9888478246002E0CDD52
:100AF0002B2804D0BAF12D0F07D144F48074B969C2
:100B00006D1C0E9888478246761EE00501D52D2182
:100B100000E02B2108F8011BCDF82C8021E00DF11D
:100B20002901761E44F4007488450CD2AAF13000E5
:100B300010F0FF0088F8000002D10B99884509D910
:100B400008F1010806E0E00501D5244801E042F281
:100B50000F708146B9696D1C0E98884782460F98C0
:100B60000560002E04DD50460CF054FA0028D6D162
:100B7000F9690E988847FF208BF8000088F800007C
:100B80000020069007904B466A4608A906A8FFF782
:100B900077FEA00502D46FF001002AE714F0240FBD
:100BA0000AD0E00714D1DDE906123868031D3B6066
:100BB0000068C0E900120BE0DDE90601FFF7EEFD79
:100BC0000146E00704D13868021D3A600068016000
:100BD00028460EE7000014400000F03FF1D8FFFF68
:100BE000426842B1016811F8013B23B1521EC0E9CD
:100BF0000012184670470121C160881E7047426884
:100C00005AB1C368016843B983688B4205D0491E55
:100C1000521CC0E90012002070474FF0FF307047AF
:100C20000FB4002300B589B00CA900910B996FF0A7
:100C30000042CB601E4B06931E4B07930423CDE965
:100C400001321D4A089202466B460020FFF7ACFEB7
:100C500009B05DF814FB70B586B006464FF0FF3062
:100C60000091CDE90101002015460C460490324662
:100C7000694604A8FFF7D4FF02460498211825B15D
:100C800008B1084600E020462860049800280DD0EE
:100C9000002A02DD0098884208D0081B0094CDE9A4
:100CA00001043246694604A8FFF7BAFF06B070BDDA
:100CB000E10B0108FF0B0108E10E01082DE9F047E7
:100CC00091460F4680460446002614F8015B2DB17C
:100CD00000F002F90068405DC007F6D12B2D02D06C
:100CE0002D2D18D0641E4A463946204600F008FAD9
:100CF00027B13968A14201D1C7F8008071054FF0D2
:100D000002040BD54042002803DD0AF065FE0460B2
:100D1000A007BDE8F08746F48066E4E70028F8DA2B
:100D20000AF05AFE04606FF00040F2E70029A8BF05
:100D30007047401C490008BF20F00100704710B404
:100D4000B0FA80FC00FA0CF050EA010404BF10BCB9
:100D5000704749B1CCF1200421FA04F411FA0CF1E6
:100D600018BF012121430843A3EB0C01CB1D4FEA1F
:100D700000614FEA102042BF002010BC704700EB1A
:100D8000C35010440029A4BF10BC7047401C490048
:100D900008BF20F0010010BC704710B5141E73F19D
:100DA000000408DA401C41F1000192185B411A432B
:100DB00001D120F0010010BD2DE9F04D92469B4677
:100DC00011B1B1FA81F202E0B0FA80F2203290461D
:100DD000FFF716FD04460F4640EA0A0041EA0B0100
:100DE00053465A46084313D0114653EA010019D01E
:100DF000C8F140025046FFF712FD05460E46504628
:100E000059464246FFF7FCFC084305D0012004E0A8
:100E100020463946BDE8F08D0020054346EAE076DD
:100E20002C4337430A986305E40AA0EB080000222C
:100E3000FD0A44EA47540A3002D500200146E9E79A
:100E4000010510196941DDE9084500196941BDE84E
:100E5000F04DA2E770B521F0004303430CD0C1F37D
:100E60000A550024D5EB040564EB0403D617AD1A2C
:100E7000B34102DB0020014670BD201841EB025156
:100E800070BDC1F30A52C1F3130140F2FF3341F4C4
:100E900080119A4202DA00200146704740F2334343
:100EA0009A42A2F2334202DC5242FFF7B8BCFFF78B
:100EB000A7BC0000064C074D06E0E06840F00103C7
:100EC00094E8070098471034AC42F6D3FFF760F976
:100ED000F43E0308143F03080048704784340308B5
:100EE00010B50446FFF7F8FF0068005D00F0010050
:100EF00010BD0146C86C80B27047704700BFFEE766
:100F00004831305F384C414E455F6D61696E2B3121
:100F10002E342E302B53657020323520323032354E
:100F20002B31333A35393A30332B00002DE9F04D6F
:100F300000231A461B1A8A4103DB00200146BDE844
:100F4000F08DC1F30A52C1F3130141F480154FF043
:100F5000000BD10702D100186D41521E0027044634
:100F600040F2FF11384601EB620A3E4680460246D7
:100F700000204FF48011FFF752FCC2197141BB18D9
:100F800046EB0100B4EB030C75EB000C04D3E41A40
:100F900065EB000517460E46241908F101006D4166
:100FA00080463428E3DDF91946EB0600091BA84109
:100FB00003D24FF0FF32134601E0002213461BEB31
:100FC000070046EB0A51BDE8F04DFFF7E6BE000012
:100FD0002DE9F041054621F000400C46284309D098
:100FE000C4F30A5040F23341884205DD28462146C9
:100FF000BDE8F0812846FBE740F2FE31884210DC74
:101000000CDB4FEA043040EA155050EA053105D0B8
:10101000104804F0004101430020E9E700200146A8
:10102000E6E7A0F233404642C6F140022846214698
:10103000FFF7E6FB07468846284621463246FFF77B
:10104000EEFB43463A46FFF7A8FE3246BDE8F041C4
:10105000FFF7D6BB0000F03F2DE9F047C1F30A547B
:1010600001F0004805460027C1F3130140F2FF30AC
:1010700041F4801684421ADAB4F57F7F00DC841EC6
:10108000A4F213446242924628463146FFF7C7FB5A
:1010900004465246FFF7B4FB45404E40354301D06D
:1010A000012000E0002044EA000100201BE040F2A3
:1010B000334084421ADCA4F2F33228463146FFF76B
:1010C0009FFB0A4678405140084301D0012000E0D0
:1010D000002040EA020AA4F2334462422846314624
:1010E000FFF79DFB5146FFF721FE03E0A4F23344D6
:1010F00005FA04F057EA080700D04042BDE8F0873F
:101100002DE9F05F82460078002715468B460AF1EC
:101110000104B946302801D09DB113E014F8010B49
:101120000127782803D0582801D045B10AE00DB135
:10113000102D07D10027102514F8010B02E0082517
:1011400000E00A250026B0460EE005FB080005FB7E
:1011500006F1012701EB10461FFA80F8B6F5803F33
:1011600000D3B94614F8010B2946FFF77AFB002893
:10117000EBDABBF1000F05D00FB1641E00E054465E
:10118000CBF80040B9F1000F06D00AF025FC02218F
:101190000160C81EBDE8F09F48EA0640FAE70EB5B8
:1011A00040F2334202920022CDE900221346FFF7BB
:1011B00003FE03B000BD70B58C1810F8015B15F08C
:1011C000070301D110F8013B2A1106D110F8012BB9
:1011D00003E010F8016B01F8016B5B1EF9D12B07DE
:1011E00005D40023521E0DD401F8013BFAE710F894
:1011F000013BCB1A921C03E013F8015B01F8015B81
:10120000521EF9D5A142D8D3002070BD21B1826809
:1012100042F00102826003E0826822F001028260F3
:10122000704700000021084A1168084A1140D0E9BF
:1012300000231A4383681A43C3681A431143044ABC
:10124000C2F804137047000004230140E030FCFFA3
:1012500000200140F0B585B00646F1B20723012217
:10126000144800F05DF800240FE0124800F0B4F8D4
:1012700000BF02210F4800F01FF80028F9D00D48E8
:10128000FFF737FE2DF81400641C0A2CEDD30A2159
:1012900068460CF097FC0025032403E03DF8140099
:1012A0000544641C072CF9D3C5F38F07384605B0F5
:1012B000F0BD0000002001400246002013680B40F2
:1012C0000BB1012000E000207047000030B502465D
:1012D000002000235068104C20400D790C6844EA2F
:1012E00005242043506090680C4C2040D1E9035401
:1012F0002C438D682C434D7944EA4504204390608B
:10130000D06A20F470000C7D641EE4B2234340EAEE
:101310000350D06230BD0000FFFEFFFCFDF7FFC0B0
:10132000F0B504460D4600200021092D11DDE068CE
:10133000A5F10A0606EB4607072606FA07F18843D9
:10134000A5F10A0606EB460603FA06F10843E0603B
:101350000CE0206905EB4507072606FA07F18843EC
:1013600005EB450603FA06F108432061072A0FDA68
:10137000606B561E06EB86071F2606FA07F18843A8
:10138000561E06EB860605FA06F10843606322E066
:101390000D2A0FDA206BD61F06EB86071F2606FAEA
:1013A00007F18843D61F06EB860605FA06F10843C7
:1013B000206310E0E06AA2F10D0606EB86071F2607
:1013C00006FA07F18843A2F10D0606EB860605FA38
:1013D00006F10843E062F0BD816841F08041816020
:1013E0007047000038B10849096841F40001074A14
:1013F000C2F8041306E00449096821F40001034A15
:10140000C2F804137047000004230140002001408B
:1014100038B50024631E5A221146F02007F004F963
:10142000631E5A221146F12007F0FEF8631E0022C7
:101430005A21FF2007F0F8F86A460121D52007F06D
:1014400031F99DF8000000F0030085490870084656
:10145000017884A005F08EFE8148007885490978DE
:10146000401A01282AD07E480078824A1278811AD0
:1014700081A005F07FFE7A4800787E4A1278811AB2
:101480007DA00AF05BFA631EA5221146F02007F04A
:10149000CBF8631EA5221146F12007F0C5F870486D
:1014A000007874490978421A73A176480AF056FA0E
:1014B00074497548FEF7DBFE601E38BD6848007849
:1014C0006C4A1278811A71A005F054FE64480078C5
:1014D000684A1278811A6DA00AF030FA60480078E4
:1014E00064490978421A69A166480AF037FA6549E1
:1014F0006548FEF7BCFE6A460221D42007F0D2F808
:101500009DF8000018B99DF8010000281ED062A0C7
:1015100005F030FE60A00AF011FA4FF0FF33A5226B
:101520001146F02007F080F84FF0FF33A522114656
:10153000F12007F079F85EA152480AF00FFA5149FC
:101540005148FEF794FE4FF0FF30B6E76A4601219E
:101550000F2007F0A7F8002000281ED04EA005F0AD
:1015600009FE4DA00AF0EAF94FF0FF33A52211461B
:10157000F02007F059F84FF0FF33A5221146F12073
:1015800007F052F84AA13F480AF0E8F93D493E48C1
:10159000FEF76DFE4FF0FF308FE76A4601210A200B
:1015A00007F080F89DF800009C281ED046A005F0AA
:1015B000E1FD45A00AF0C2F94FF0FF33A522114624
:1015C000F02007F031F84FF0FF33A5221146F1204B
:1015D00007F02AF83CA12B480AF0C0F929492A480B
:1015E000FEF745FE4FF0FF3067E73D4800780728DB
:1015F00007D13C480078322803D13B480078562870
:101600001ED03AA005F0B6FD38A00AF097F94FF0C9
:10161000FF33A5221146F02007F006F84FF0FF3304
:10162000A5221146F12006F0FFFF30A115480AF06F
:1016300095F914491448FEF71AFE4FF0FF303CE7C5
:101640004FF0FF33A5221146F02006F0EDFF4FF0DA
:10165000FF33A5221146F12006F0E6FF00BF2CE77C
:10166000210000204F54505F74696D65733D2564FF
:101670000D0A0000220000204F5450204E47202524
:10168000640D0A00F81C0020F81400204F5450206C
:101690004F4B2025640D0A004F5450204E472C20FC
:1016A00072654F545020706C656173650D0A0000BF
:1016B0004F5450204E472C2072654F545020706C70
:1016C0006561736500000000506C65617365207290
:1016D000652D6C696768742069740D0A000000004C
:1016E0002300002024000020250000204943204939
:1016F0004420636865636B204E4721210D0A00007A
:101700001CB50121102007F039F84FF4604000901B
:1017100001208DF8040000208DF8060001208DF8CE
:10172000070003208DF805006946064803F0ACFA6F
:101730000020054908600549C1F8B802024908318E
:1017400008601CBD00100240B40242420000424248
:1017500030B505460C46B4F5806F01DB40F2FF342E
:10176000294664F31F11084600F010F801200549CE
:1017700008600A20FFF7C1FB00200349C1F8BC0242
:1017800030BD0000BC0242420000424200B50146AA
:1017900000221AE001F0010018B101200C4B186082
:1017A00002E000200A4B18600A20FFF7A6FB012088
:1017B000074B1B1D18600A20FFF79FFB0020054BFD
:1017C000C3F8B8024908501CC2B20E2AE2DB00BDC1
:1017D000B4024242000042423EB50B208DF80300A5
:1017E00000208DF804008DF800008DF80100012024
:1017F0008DF8050000208DF8020007480290684629
:1018000000F028FB04461C2C02DB4FF0FF303EBDED
:1018100000F04EF80020FAE7E118010870B586B034
:1018200006460C46029820F07C7000F530000290CD
:10183000029820F460200290029820F4FC3000F519
:1018400000600290029820F4E0600290029820F07C
:10185000FF00029027E0082C0EDD08208DF80E0016
:10186000002505E031780DF10F004155761C6D1C07
:10187000082DF7D3083C0DE0E0B28DF80E000025EE
:1018800005E031780DF10F004155761C6D1CA54225
:10189000F7D3002401A800F0E9FA042803DB4FF095
:1018A000FF3006B070BD002CD5D10020F9E7000054
:1018B000084809490861BB204870EE2088704FF441
:1018C0008060486000200870888148618860034813
:1018D0008861704724E3002000E30020A986020805
:1018E00070B505462E46002406E006F10B00015DAA
:1018F000034882699047641CB07AA042F5D870BD55
:1019000000E300202DE9F041064634462779082FF0
:101910000AD1A07AA188C1F302211C4B53F82120DF
:1019200004F10B0190472EE0A088C0F30220C0EB29
:10193000C000174901EB4000478094F80A80A08856
:10194000C0F30220C0EBC00001EB400080F804802F
:1019500000250DE004F10B00415DA088C0F30220DA
:10196000C0EBC0000A4A02EB4000401D41556D1C0F
:101970004545EFD30120A188C1F30221C1EBC1018C
:10198000034A02F81100BDE8F081000090EB00204E
:10199000A4EB002070B586B0044601250026052C76
:1019A00002DB002006B070BD029820F07C7000F5CC
:1019B000C0000290029864F353400290029820F411
:1019C000FC3000F500600290029820F4E060029084
:1019D000029820F0FF00801D029000208DF80E007C
:1019E00001A800F043FA022801DD0120DAE705F042
:1019F00019FC06461EE0C4EBC400124911F81000A1
:101A0000012817D1C4EBC40001EB40004088062830
:101A100010D1C4EBC40001EB40004079012801D192
:101A2000022500E000250020C4EBC401054A02F8AD
:101A3000110004E0304604F061F93228DBD300BF26
:101A4000E8B2AFE7A4EB002070B586B004460025ED
:101A50000026052C02DB002006B070BD029820F0A5
:101A60007C7000F5C0000290029864F3534002902D
:101A7000029820F4FC3000F500600290029820F4F7
:101A8000E0600290029820F0FF00401C02900020CD
:101A90008DF80E008DF80F0001A800F0E7F902287C
:101AA00001DD0120D8E745F0020505F0BBFB064645
:101AB0005BE0C4EBC400314911F81000012854D197
:101AC000C4EBC40001EB4000408800284DD1002544
:101AD000C4EBC40001EB40000079062801D045F0BA
:101AE0000405C4EBC400254901EB400040790128FE
:101AF00001D045F00805C4EBC400204901EB4000CB
:101B00008079012801D045F04005C4EBC4001B4991
:101B100001EB4000C07908B145F08005C4EBC4007A
:101B2000164901EB4000007A1549095D884201D051
:101B300045F48075C4EBC400104901EB4000407AC5
:101B4000062801D045F01005C4EBC4000B4901EB99
:101B50004000807AA04201D045F020050020C4EB6F
:101B6000C401064A02F8110004E0304604F0C6F849
:101B700032289ED300BF28466EE70000A4EB002069
:101B8000800E00202DE9F04180460F4615462C4678
:101B90003E4619E0802C0CDD3146802000F03EF8F6
:101BA000012803DA4FF0FF30BDE8F081803C803639
:101BB0000AE0A0B2314600F031F8012802DA4FF015
:101BC000FF30F1E7241B2644002CE3DC2846EBE73A
:101BD0001CB50548022104230022CDE9001005218F
:101BE000012000F025F81CBDED1B010870B504466E
:101BF0000D460948806828B1074922468868294669
:101C000015F034FE0448C06828B10349086822462C
:101C1000CB682946984770BD0823002070B504465C
:101C20000D462A462146012000F0A8F870BD0000AC
:101C30002DE9FE4F04460D4617469846DDE90C9AFD
:101C4000052C02DB0120BDE8FE8F082D01DC022DF2
:101C500001DA0120F7E71B4840F824A01A4805558F
:101C60001A4807551A4800F804801A4800F80490EA
:101C70000020194941F8240006208DF803008DF852
:101C8000044001208DF8050000208DF80200134863
:101C90000290684600F0DEF806461C2E01DB0120AB
:101CA000D1E7204600F01CF808B10120CBE7322034
:101CB00002F098F92046FFF7C7FE08B10120C2E7FD
:101CC0000020C0E790EB0020800E0020850E002051
:101CD0008A0E00208F0E0020ECEB00200519010871
:101CE00010B586B00446029820F07C7000F5C00064
:101CF0000290029864F353400290029820F4FC3062
:101D000000F500600290029820F4E06002900298D2
:101D100020F0FF00029008208DF80E0001208DF8C1
:101D20000F0001218DF8101000218DF811100F48BF
:101D3000015D8DF812100E48015D8DF815100D48EB
:101D4000015D8DF816109DF816000B49095D40EAFB
:101D50000110C1B28DF8161001A800F087F8022812
:101D600002DD012006B010BD0020FBE7800E002040
:101D7000850E00208A0E00208F0E00202DE9F041F4
:101D800086B005460E461746029820F07C7000F596
:101D9000C0000290029865F353400290029820F42C
:101DA000FC3000F500600290029820F4E0600290A0
:101DB000029820F0FF000830029044E0082E10DD69
:101DC00008208DF80E00002405E039780DF10F0091
:101DD00001557F1C641C082CF7D3A6F1080086B2BD
:101DE0000DE0F0B28DF80E00002405E039780DF119
:101DF0000F0001557F1C641CB442F7D30026144821
:101E000050F82500FF280ED90020114941F825007F
:101E10004FF0020803E02846FFF7BCFD8046B8F10A
:101E2000020FF8D000BF01A800F020F8042803DB5F
:101E3000012006B0BDE8F081054850F82500204497
:101E4000034941F82500002EB8D10020F1E7000039
:101E5000ECEB002010B504462146012000F01AF9F1
:101E600010BD10B5012000F097FA10BD10B5044662
:101E70002146012000F010FB10BD000010B5044603
:101E80000020034908602146024801F025FA10BDF0
:101E9000940E00202431012010B514210448FEF7CF
:101EA000DBF9044802490861FFF792FE004810BDC3
:101EB00008230020851B010810B512480068A8B946
:101EC00011480078012803D1104800F0D1FE10BD60
:101ED0000D480078022803D10C4801F077F8F6E7A6
:101EE0000948007803280AD10020F0E70548006877
:101EF000806820B10349096888688047E7E74FF0A8
:101F0000FF30E4E7940E0020980E002024310120D9
:101F1000F8B505460E4617461C461C48006818BB17
:101F20001B480078012807D13B463246294619480C
:101F3000009400F0E1FEF8BD15480078022807D1B2
:101F40003B46324629461348009401F083F8F2E7F5
:101F50000F480078032815D13B46324629460D48E4
:101F6000009401F0D1F9E6E708480068C06848B17C
:101F70000648006823463A463146D0F80CC0284649
:101F8000E047D8E74FF0FF30D5E70000940E00207F
:101F9000980E00202431012070B504460D461348E8
:101FA0000068A8B912480078012801D1002070BD4E
:101FB0000F480078022801D10020F8E70C4800788B
:101FC000032810D12A4621460A4801F0FDF9EEE720
:101FD00006480068406A30B1044800682946426AF1
:101FE00020469047E3E74FF0FF30E0E7940E0020F3
:101FF000980E00202431012070B504460D460220C1
:102000000C4908700C48006828B92A4621460B483C
:1020100001F0DAF870BD08480068006830B1064881
:1020200000682946026820469047F3E74FF0FF30EA
:10203000F0E70000980E0020940E002024310120CB
:1020400000B585B06A460021104800F07CFB9DF881
:10205000130000EB40000E4901EB8000807801285E
:1020600008D09DF8130000EB400001EB80004079A0
:10207000012809D19DF8130000EB4000044A02EB4F
:10208000800081686846884705B000BD0064004054
:10209000B0E100207FB506460C46A07820B96079F3
:1020A00010B9FD2004B070BDA07801283CD1607942
:1020B000012839D1002534E005EB4500B44901EB96
:1020C0008000807801282AD105EB450001EB8000D3
:1020D0004079012823D105EB450011F82000217833
:1020E00088421CD105EB4500A94901EB80004078EE
:1020F0006178884213D105EB4500A54901EB8000CA
:10210000C078E17888420AD105EB4500A04901EB8F
:10211000800000792179884201D1FE20C2E7681C45
:10212000C5B21C2DC8DB57E0A078012828D1607902
:1021300030BB002521E005EB4500954901EB80000F
:102140008078012817D105EB450001EB800040792C
:1021500088B905EB450011F82000217888420AD1A2
:1021600005EB45008A4901EB8000407861788842A0
:1021700001D1FE2096E7681CC5B21C2DDBDB2BE0ED
:10218000A07848BB6079012826D1002522E005EB24
:1021900045007F4901EB80008078C8B905EB450018
:1021A00001EB80004079012812D105EB450001EBDD
:1021B0008000C078E17888420AD105EB4500744977
:1021C00001EB800000792179884201D1FE2069E786
:1021D000681CC5B21C2DDADB00250FE005EB4500BD
:1021E0006B4901EB8000807830B905EB450001EBCD
:1021F0008000407900B903E0681CC5B21C2DEDDBFE
:1022000000BF1C2D01DBFF204CE78DF80A50002099
:102210008DF80B0001208DF80C00E6BB207800F053
:102220000F004FF4204141EA4020617801F00F0196
:1022300040EA4110E17801F00F0140EA41002179C4
:10224000C1F3C0010843ADF800002079042101EB7F
:10225000403080B2ADF802004FF46040ADF80400A9
:102260000620ADF80600A078012806D1BDF80400CC
:102270004FF6E0710843ADF80400607901284CD1B5
:10228000BDF8040040F01F00ADF80400BDF80600E2
:1022900040F4604000E002E0ADF806003DE0012EB1
:1022A0003BD1207800F03F00710341EAC010617813
:1022B00001F0070140EA0110E178C1F3830108430E
:1022C000ADF80000E0788007000C217901F00701EB
:1022D00040EAC120001DADF802004FF46040ADF8A7
:1022E00004000620ADF80600A078012806D1BDF84C
:1022F00004004FF6F0710843ADF80400607901283E
:102300000BD1BDF8040040F00F00ADF80400BDF89B
:10231000060040F47840ADF806000020ADF8080053
:1023200001208DF80D00684600F0F6F805EB450138
:10233000174A02EB8101A0688860A07805EB45018F
:1023400002EB81018870607905EB450102EB8101A8
:102350004871207805EB450102F82100607805EB13
:10236000450102EB81014870E07805EB450102EB85
:102370008101C870207905EB450102EB81010871EC
:1023800001220221034800F04BF928468AE60000AA
:10239000B0E100200064004030B587B0054601215F
:1023A000084606F0EBF90121480606F007FA4FF45B
:1023B000C050059002208DF8180000208DF81A00FA
:1023C00003208DF8190001208DF81B0005A92F4866
:1023D00002F05AFC09220B212C4802F09DFC092234
:1023E0000C212A4802F098FC00208DF80E008DF890
:1023F0000F008DF810008DF811008DF812000120EB
:102400008DF8130000208DF80A005DB98DF80B00DF
:1024100004208DF80C0000208DF80D001520ADF87B
:1024200008000DE0012D0BD100208DF80B000420D9
:102430008DF80C0000208DF80D000C20ADF8080080
:1024400002A9134800F0F5F814208DF804000020CC
:102450008DF8050003208DF8060001208DF8070097
:1024600001A804F0EFFE00240CE0002004EB44017E
:10247000084A02EB8101887004EB440102EB810100
:102480004871641C1C2CF0D307B030BD0000024022
:1024900000640040B0E100202DE9F04107460D4600
:1024A0004FF00008686820F0E0506860686820F02D
:1024B000604068602C4627B9606840F0A0506060BA
:1024C00005E0012F03D1606840F080606060042067
:1024D00020720020607221460E4800F0ACF90646DA
:1024E000042E01D1BDE8F08101E008F10108314678
:1024F000084800F033FA012803D04FF6FF708045FA
:10250000F3D34FF6FF70804501D30520EAE730464C
:10251000E8E700000064004010B50021837A012242
:1025200002FA03F13D4A126842F001023B4B1A6085
:102530003A4A1C3212688A43384B1C331A60027BB9
:10254000CAB9364A0C3212688A43344B0C331A60CB
:102550004288C38842EA0343304A4032847A42F8D0
:1025600034300288838842EA03432C4A4032847A1A
:1025700002EBC4025360027B012A19D1274A0C32B4
:1025800012680A43254B0C331A604288038842EADA
:102590000343224A4032847A42F83430C288838826
:1025A00042EA03431D4A4032847A02EBC40253607C
:1025B000C27A3AB9194A121D12688A43174B1B1D79
:1025C0001A6006E0154A121D12680A43134B1B1DC0
:1025D0001A60028932B9114A143212688A430F4BC9
:1025E00014331A600289012A06D10C4A1432126887
:1025F0000A430A4B14331A60427B012A06D1074A68
:102600001C3212680A43054B1C331A60034A1268D5
:1026100022F00102014B1A6010BD0000006600406C
:102620001AB143690B43436102E043698B43436141
:10263000704730B5024600200023146824F00204DD
:102640001460146844F00104146000E05B1C5468DA
:1026500004F001041CB94FF6FF74A342F6D154688C
:1026600004F001040CB900206CE08C79012C04D139
:10267000146844F08004146003E0146824F08004BB
:102680001460CC79012C04D1146844F04004146027
:1026900003E0146824F0400414600C7A012C04D187
:1026A000146844F02004146003E0146824F020044B
:1026B00014604C7A012C04D1146844F010041460A6
:1026C00003E0146824F0100414608C7A012C04D107
:1026D000146844F00804146003E0146824F008044B
:1026E0001460CC7A012C04D1146844F00404146002
:1026F00003E0146824F0040414608C78A407CD78F7
:1027000044EA05640D7944EA05444D7944EA0554E8
:102710000D886D1E2C43D461146824F001041460EC
:10272000002300E05B1C546804F001041CB14FF668
:10273000FF74A342F6D1546804F001040CB10020E8
:1027400000E0012030BD10B500F5D87303EB011394
:102750001B6803F004031372137A53B900F5D8739E
:1027600003EB01131B6840F2FF7404EA5353136038
:1027700009E000F5D87303EB01131B686FF06044A8
:1027800004EAD303536000F5D87303EB01131B680D
:1027900003F00203537200F5D87303EB01135B6877
:1027A00003F00F03937200F5D87303EB01135B681A
:1027B0001B0AD37400F5D87303EB01139B68D37223
:1027C00000F5D87303EB01139B681C0A147300F522
:1027D000D87303EB01139B681C0C547300F5D8737A
:1027E00003EB01139B681B0E937300F5D87303EB87
:1027F0000113DB68D37300F5D87303EB0113DB68B7
:102800001C0A147400F5D87303EB0113DB681C0C6D
:10281000547400F5D87303EB0113DB681B0E93743B
:1028200021B9C36843F02003C36003E0036943F0A8
:102830002003036110BD10B502460020936803F029
:102840008063B3F1806F00D110E0936803F0006300
:10285000B3F1006F01D1012008E0936803F08053C9
:10286000B3F1805F01D1022000E00420042874D07D
:1028700002F5C07303EB00131B6803F0010402F5BB
:10288000C07303EB00131C600B7A7BB94B7A0C8886
:1028900043EA445302F5C07404EB00142468234354
:1028A00002F5C07404EB0014236010E00B7A4C684E
:1028B00043EAC4034C7A234302F5C07404EB0014CA
:1028C0002468234302F5C07404EB001423608B7A60
:1028D00003F00F038B7202F5C07303EB00135B6808
:1028E00023F00F0402F5C07303EB00135C6002F5E4
:1028F000C07303EB00135B688C7A234302F5C0744A
:1029000004EB001463608B7B1C064B7B44EA03449E
:102910000B7B44EA0323CC7A234302F5C07404EB17
:102920000014A3608B7C1C064B7C44EA03440B7CA4
:1029300044EA0323CC7B234302F5C07404EB001468
:10294000E36002F5C07303EB00131B6843F001045E
:1029500002F5C07303EB00131C6010BD10B50246F6
:10296000002321B1012907D002290FD109E0906885
:102970001D4C00EA04030BE090681C4C00EA0403C1
:1029800006E090681A4C00EA040301E0002300BF4F
:1029900000BF184C181BA34216D007DC83B16FF0A0
:1029A0008060184470B1022818D111E0B0F5007FA2
:1029B00010D0114C204448B1B0F5003F0ED10BE0CF
:1029C00002230DE000230BE0002309E0002307E0D1
:1029D000012305E0012303E0012301E0002300BF00
:1029E00000BFD8B210BD00000300000400030008BF
:1029F00000000310000100080001FFF738B5694628
:102A0000002000F031F80446002C02DA4FF0FF30CD
:102A100038BD9DF8000000F00F00012802D04FF0F3
:102A2000FF30F5E70121084600F049F814210220A3
:102A300000F045F80221042000F041F85021052063
:102A400000F03DF80A21142000F039F80221152089
:102A500000F035F80021162000F031F80021172091
:102A600000F02DF82046D3E770B505460E4600204D
:102A700001F02FFDCA21002001F054FD044614B9D5
:102A80004FF0FF3070BD45F08001002001F04AFD9D
:102A9000044614B94FF0FF30F4E7002001F019FDAF
:102AA000CB21002001F03EFD14B94FF0FF30E9E7E3
:102AB0000121002001F0D0FC30700120E2E770B568
:102AC00005460E46002001F004FDCA21002001F059
:102AD00029FD044614B94FF0FF3070BD45F0800168
:102AE000002001F01FFD044614B94FF0FF30F4E759
:102AF0003146002001F016FD044614B94FF0FF30B6
:102B0000EBE7002001F0FCFC2046E6E72DE9F14F61
:102B10002DED0C8B82B00E9D502D03D350244FF021
:102B2000010808E0082D03D308244FF00A0802E04A
:102B300001244FF050089FED4C0B08F079FFB0EEE8
:102B4000409AF0EE609A2046FDF7A0FD41EC1C0B88
:102B50002846FDF79BFD41EC1D0B53EC1C2BFDF7AC
:102B600007FD41EC1B0BB0EE4B0AF0EE6B0A08F0D0
:102B70005FFFB0EE40AAF0EE60AA53EC192B51ECC7
:102B80001A0BFDF7F5FC41EC180BFDF78CFD0090DE
:102B90000098042803DA0098C0F1040B01E04FF01C
:102BA000000B5846FDF772FD41EC1B0BB0EE4B1AC3
:102BB000F0EE6B1A9FED2C0B09F09EF9B0EE409AE7
:102BC000F0EE609A2846FDF761FD41EC1A0B53ECDC
:102BD000192BFDF75BFC41EC180BFDF783FD8246DA
:102BE000BAFBF4F704FB17A00190E800B0FBF4F97E
:102BF000B9F17D0F01D200260AE0B9F1960F01D29A
:102C0000012605E0B9F1AF0F01D2022600E003264C
:102C1000BC210220FFF753FF08F0FF010320FFF75C
:102C20004EFFC5F307111820FFF749FF2A0101984D
:102C300042EA5010C1B21920FFF741FF0198C000CD
:102C400040EAD700C1B21A20FFF739FF780140EA05
:102C50008B003043C1B21B20FFF731FF02B0BDEC47
:102C60000C8BBDE8F88F0000000000000000004061
:102C700070B504460025D4F8140808B9681E70BD64
:102C800017E040F6B83304F2144216A1204600F0D3
:102C9000D3FB16A104F21440FDF7F5FA04F2144137
:102CA000884205D06D1C032D03DD6FF00100E6E7BF
:102CB00000E0E6E700BF41F2883304F214420CA1C1
:102CC000204600F0B9FB09A104F21440FDF7DBFA3D
:102CD00004F21441884202D06FF00200CFE70120D5
:102CE000CDE70000434F4D2C310D00004F4B00004D
:102CF0005A52430D000000002DE9F04F2DED028BDC
:102D000085B004460F4690469946DDF840A000265F
:102D1000D4F8140828B9701E05B0BDEC028BBDE8CC
:102D2000F08F002517E00120A840384090B19FEDBA
:102D3000990A09EB860080ED000A9FED960A0AEBDE
:102D4000860080ED000A9FED930A08EB860080ED77
:102D5000000A761C6D1C052DE5DB2078B8424AD0B0
:102D600027704FF47A7304F214428BA1204600F0CE
:102D700063FB8BA104F21440FDF785FA04F21441C1
:102D8000884202D06FF00100C6E786A101A808F0D2
:102D9000E5FD00250FE00120A840384050B101A812
:102DA000FDF78DFA01A900EB010B6A1C7FA15846C3
:102DB00008F0D4FD6D1C052DEDDB01A8FDF77FFAB1
:102DC00001A900EB010B7AA1584608F0C7FD40F6B7
:102DD000B83304F2144201A9204600F02DFB70A183
:102DE00004F21440FDF74FFA04F21441884202D075
:102DF0006FF0020090E74FF47A7304F214426DA171
:102E0000204600F019FB66A104F21440FDF73BFADE
:102E100004F21441884202D06FF003007CE740F6D0
:102E2000B83304F2144265A1204600F005FB5CA112
:102E300004F21440FDF727FA04F21441884202D04C
:102E40006FF0040068E7761E5EA104F21B40FDF7F8
:102E500047FA0490049808F0C3FDB0EE408AF0EE03
:102E6000608A51EC180BFDF799FC00EE100ADFEDBB
:102E7000560A80EE201A89ED001A52A10020FDF7B3
:102E80002FFA0490049808F0ABFDB0EE408AF0EE03
:102E9000608A51EC180BFDF781FC00EE100ADFEDA3
:102EA0004A0A80EE201A8AED001A46A10020FDF79A
:102EB00017FA0490049808F093FDB0EE408AF0EE03
:102EC000608A51EC180BFDF769FCC8F800005CE063
:102ED00040F6B83204F21441204600F0F9FA30A16D
:102EE00004F21440FDF7CFF904F21441884202D0F5
:102EF0006FF0050010E709F104090AF1040A08F16E
:102F00000408761E2FA104F21B40FDF7E9F9049096
:102F1000049808F065FDB0EE408AF0EE608A51EC4E
:102F2000180BFDF73BFC00EE100ADFED270A80EEE0
:102F3000201A89ED001A23A10020FDF7D1F9049091
:102F4000049808F04DFDB0EE408AF0EE608A51EC36
:102F5000180BFDF723FC00EE100ADFED1B0A80EED4
:102F6000201A8AED001A17A10020FDF7B9F9049084
:102F7000049808F035FDB0EE408AF0EE608A51EC1E
:102F8000180BFDF70BFCC8F80000002EA0DC012098
:102F9000C2E6000000000000434F4D2C310D000040
:102FA0004F4B00004F50522C0000000025640000E1
:102FB0000D0000004D44532C300D00004D45530DC5
:102FC000000000003B00000000401C4670B50446B5
:102FD0000025D4F8140808B9681E70BD17E040F643
:102FE000B83304F2144216A1204600F025FA16A1C7
:102FF00004F21440FDF747F904F21441884205D069
:103000006D1C032D03DD6FF00100E6E700E0E6E74D
:1030100000BF46F2A81304F214420CA1204600F0AF
:103020000BFA09A104F21440FDF72DF904F2144142
:10303000884202D06FF00200CFE70120CDE7000008
:10304000434F4D2C310D00004F4B00005A52430DA1
:10305000000000002DE9F0472DED028B04460D46DF
:1030600016461F46DDF82880D4F8140828B94FF01A
:10307000FF30BDEC028BBDE8F087012D02DA6FF066
:103080000B00F6E7681E4749085C01283FD0012184
:10309000681E444A11544FF47A7304F2144242A158
:1030A000204600F0C9F942A104F21440FDF7EBF804
:1030B00004F21441884202D06FF00100D9E74FF4C6
:1030C0007A7304F214423BA1204600F0B5F938A10E
:1030D00004F21440FDF7D7F804F21441884202D0FC
:1030E0006FF00200C5E740F6B83304F2144233A192
:1030F000204600F0A1F92EA104F21440FDF7C3F818
:1031000004F21441884216D06FF00300B1E740F694
:10311000B83304F2144229A1204600F08DF924A10D
:1031200004F21440FDF7AFF804F21441884202D0D3
:103130006FF003009DE723A104F21D40FDF7D0F8D6
:103140008146484608F04CFCB0EE408AF0EE608ABA
:1031500051EC180BFDF722FB38601AA10020FDF797
:10316000BFF88146484608F03BFCB0EE408AF0EEDE
:10317000608A51EC180BFDF711FBC8F8000011A193
:103180000020FDF7ADF88146484608F029FCB0EE76
:10319000408AF0EE608A51EC180BFDF7FFFA3060C0
:1031A000012066E7F40E00204D4D532C310D000038
:1031B0004F4B00004D44532C300D00004D45532C17
:1031C000320D00002C000000FEB504460D461646E8
:1031D00000200090019002900027D4F8140808B94C
:1031E000781EFEBD17E040F6B83304F2144231A158
:1031F000204600F021F931A104F21440FDF743F814
:1032000004F21441884205D07F1C032F03DD6FF0C8
:103210000100E6E700E0E6E700BF40F6B83304F25D
:10322000144227A1204600F007F924A104F214401B
:10323000FDF729F804F21441884202D06FF0020031
:10324000CFE7002D18DB2A461FA1684608F086FB51
:1032500040F6B83304F214426946204600F0ECF818
:1032600016A104F21440FDF70EF804F2144188424E
:1032700002D06FF00300B4E7002E18DB324614A131
:10328000684608F06BFB40F6B83304F21442694616
:10329000204600F0D1F809A104F21440FCF7F3FF36
:1032A00004F21441884202D06FF0040099E7012033
:1032B00097E70000434F4D2C310D00004F4B0000AD
:1032C0004653432C320D00004D43482C25640D001D
:1032D0005343532C25640D0070B504460D4640F64B
:1032E00018012046FCF7B8FF4FF4806204F1140186
:1032F000201D14F072FAC4F81458201DD4F81418C4
:103300008860002070BD00002DE9F0472DED028B94
:103310000446894615461E460A9FD4F8140828B963
:103320004FF0FF30BDEC028BBDE8F08740F6B833BC
:1033300004F214421FA1204600F07EF8002802DCAF
:103340004FF0FF30EEE71FA104F21440FCF7C8FF76
:103350008046404608F044FBB0EE408AF0EE608ABA
:1033600051EC180BFDF71AFA286016A10020FCF7A3
:10337000B7FF8046404608F033FBB0EE408AF0EEDF
:10338000608A51EC180BFDF709FA30600DA100209E
:10339000FCF7A6FF8046404608F022FBB0EE408ACC
:1033A000F0EE608A51EC180BFDF7F8F93860012057
:1033B000B8E700003A4D4541537572653A5978793E
:1033C0000D0000002C000000F0B58DB004460F4643
:1033D0001546342216496846FCF725FF0020286070
:1033E0006860D4F8140818B94FF0FF300DB0F0BD84
:1033F00029466846FCF73BFF0EA16846FCF737FFFD
:1034000040F6B83304F214426946204600F014F83E
:1034100000280ADD04F21440FCF751FF461C324636
:1034200004F214412846FCF7FEFE0120DEE700000E
:10343000182E03080D0000002DE9F04705460E4642
:1034400014461F464FF00009B046D5F8140818B9C5
:103450004FF0FF30BDE8F0874FF4806205F2144171
:10346000281D14F0D2F94046FCF729FF8246524647
:103470004146D5F814080DF016FB03F0D3FE814643
:103480001FE0484602F03AFCB84207D30DA105F20E
:103490001440FCF71BFF4FF0FF30DBE70122214611
:1034A000281D14F0B2F960B1207800F07F00207080
:1034B00020780D2804D1641C002020700120C9E769
:1034C000641CDEE745523A74696D654F75740000FF
:1034D0002DE9F04105460C4616460027D5F814089C
:1034E00010B9781EBDE8F08103F09CFE07461FE08E
:1034F000384602F003FCB04207D30EA105F2144097
:10350000FCF7E4FE4FF0FF30ECE701222146281DD6
:1035100014F07BF960B1207800F07F0020702078F3
:103520000D2804D1641C002020700120DAE7641CFF
:10353000DEE7000045523A74696D654F757400000E
:1035400010B52DED068B88B00124002001F014FB8E
:1035500011F01EFE4FF4FA7000F044FD06AB07AA0E
:1035600005A90120FEF7D4FC00287CDB0598FDF7B7
:10357000D2F841EC180B9FEDFE0B53EC102BFDF72E
:10358000F5F860D80598FDF7C6F841EC180B9FEDEB
:10359000FA0B53EC102BFDF7D1F854D89DED070A28
:1035A000DFEDF70AB4EEE00AF1EE10FA4BDB9DED29
:1035B000070ADFEDF40AB4EEE00AF1EE10FA42D8A1
:1035C0009DED060ADFEDF00AB4EEE00AF1EE10FA26
:1035D00039DB9DED060ADFEDED0AB4EEE00AF1EE0F
:1035E00010FA30D80598FDF796F841EC180B0698BC
:1035F000FDF791F841EC190B0798FDF78CF841ECB9
:103600001A0B8DED028B8DED009B53EC1A2BE0A075
:1036100003F0B0FD0598FDF77EF841EC180B069815
:10362000FDF779F841EC190B0798FDF774F841ECB8
:103630001A0B8DED028B8DED009B53EC1A2BD4A051
:1036400008F07CF936E00598FDF765F841EC180BB9
:103650000698FDF760F841EC190B0798FDF75BF849
:1036600041EC1A0B00E023E08DED028B8DED009B09
:1036700053EC1A2BCFA003F07DFD0598FDF74BF816
:1036800041EC180B0698FDF746F841EC190B07982A
:10369000FDF741F841EC1A0B8DED028B8DED009B8F
:1036A00053EC1A2BC3A008F049F94FF0FF3401E0A6
:1036B0004FF0FF3411F098FD4FF4FA7000F092FCD7
:1036C00006AB07AA05A90120FEF722FC00287CDB37
:1036D0000598FDF720F841EC180B9FEDBF0B53EC5C
:1036E000102BFDF743F860D80598FDF714F841EC6E
:1036F000180B9FEDBB0B53EC102BFDF71FF854D8A4
:103700009DED070ADFED9E0AB4EEE00AF1EE10FA35
:103710004BDB9DED070ADFED9B0AB4EEE00AF1EE0C
:1037200010FA42D89DED060ADFED970AB4EEE00AE2
:10373000F1EE10FA39DB9DED060ADFED940AB4EEE6
:10374000E00AF1EE10FA30D80598FCF7E4FF41ECFE
:10375000180B0698FCF7DFFF41EC190B0798FCF7F4
:10376000DAFF41EC1A0B8DED028B8DED009B53ECD3
:103770001A2B9DA003F0FEFC0598FCF7CCFF41EC52
:10378000180B0698FCF7C7FF41EC190B0798FCF7DC
:10379000C2FF41EC1A0B8DED028B8DED009B53ECBB
:1037A0001A2B91A008F0CAF836E00598FCF7B3FF91
:1037B00041EC180B0698FCF7AEFF41EC190B07988B
:1037C000FCF7A9FF41EC1A0B00E023E08DED028B22
:1037D0008DED009B53EC1A2B8CA003F0CBFC0598CD
:1037E000FCF799FF41EC180B0698FCF794FF41ECAD
:1037F000190B0798FCF78FFF41EC1A0B8DED028B2C
:103800008DED009B53EC1A2B80A008F097F84FF039
:10381000FF3401E04FF0FF3411F010FD4FF4FA7067
:1038200000F0E0FB002001F0A7F94FF4C87000F0B1
:10383000D9FB06AB07AA05A90120FEF769FB002802
:103840007EDB0598FCF767FF41EC180B9FED780BCA
:1038500053EC102BFCF78AFF60D80598FCF75BFF50
:1038600041EC180B9FED740B53EC102BFCF766FF2B
:1038700054D89DED070ADFED420AB4EEE00AF1EEFE
:1038800010FA4BDB9DED070ADFED3E0AB4EEE00ACD
:10389000F1EE10FA42D89DED060ADFED3B0AB4EED8
:1038A000E00AF1EE10FA39DB9DED060ADFED370A8A
:1038B000B4EEE00AF1EE10FA30D80598FCF72BFFD1
:1038C00041EC180B0698FCF726FF41EC190B079802
:1038D000FCF721FF41EC1A0B8DED028B8DED009B67
:1038E00053EC1A2B56A003F045FC0598FCF713FF88
:1038F00041EC180B0698FCF70EFF41EC190B0798EA
:10390000FCF709FF41EC1A0B8DED028B8DED009B4E
:1039100053EC1A2B4AA008F011F8C8E00598FCF700
:10392000FAFE41EC180B0698FCF7F5FE41EC190B7A
:103930000798FCF7F0FE41EC1A0B8DED028B00E0CE
:10394000B3E08DED009B53EC1A2B47A003F012FC63
:103950000598FCF7E0FE41EC180B0698FCF7DBFE3F
:1039600041EC190B0798FCF7D6FE41EC1A0B8FE0DF
:1039700000000000009092400000000000F0924023
:103980007593983EBF9F9A3E8941A03ED34DA23E7B
:1039900048424D205768697465204F4B20583A259E
:1039A0002E33662059252E3366204C76252E33661D
:1039B0000D0A000048424D205768697465204E4743
:1039C00020583A252E33662059252E3366204C7612
:1039D000252E33660D0A00009999999999195D4031
:1039E0006766666666E65E40414F442057686974C4
:1039F00065204F4B20583A252E33662059252E330B
:103A000066204C76252E33660D0A0000414F442077
:103A10005768697465204E4720583A252E33662032
:103A200059252E3366204C76252E33660D0A00006C
:103A300000000000009082400000000000F0824082
:103A40004E6F726D616C205768697465204F4B2012
:103A5000583A252E33662059252E3366204C76257C
:103A60002E33660D0A0000004E6F726D616C205798
:103A700068697465204E4720583A252E33662059D0
:103A8000252E3366204C76252E33660D0A00000065
:103A90008DED028B8DED009B53EC1A2BAFF23800AD
:103AA00007F04CFF4FF0FF3401E04FF0FF342046A9
:103AB00008B0BDEC068B10BD70B500254FF4803406
:103AC00000E0641E24B1802005F0A0FC0028F8D09E
:103AD00014B90325284670BD40F2FF5005F052FC92
:103AE0002846F8E72DE9F0410646002748480568D2
:103AF00001E04748056805F045000028F9D005F0C9
:103B0000040030B10327042005F03CFC3846BDE832
:103B1000F08105F0010028B10127012005F032FCF9
:103B20003846F4E705F06CFCB04202D01027384666
:103B3000EDE740F2FF5005F025FC002005F086FC83
:103B400004463448204008B93846E0E704F0004015
:103B500008B11C20DBE704F0804008B10920D6E75B
:103B600004F0005008B10A20D1E704F0805008B1F9
:103B70000B20CCE704F0006008B10C20C7E704F08C
:103B8000806008B10D20C2E704F0807008B10E20FB
:103B9000BDE704F4000008B10F20B8E704F480008A
:103BA00008B11020B3E704F4001008B11120AEE70B
:103BB00004F4801008B11220A9E704F4002008B131
:103BC0001320A4E704F4802008B114209FE704F434
:103BD000003008B115209AE704F4803008B11620AF
:103BE00095E704F4004008B1172090E704F4804002
:103BF00008B118208BE704F4005008B1192086E7BB
:103C000004F0080008B11A2081E738467FE7000079
:103C1000342C014008E0FFFD70B500251048046811
:103C200001E00F48046804F045000028F9D004F0D2
:103C3000040028B10325042005F0A4FB284670BD2C
:103C400004F0010028B10125012005F09BFB284666
:103C5000F5E740F2FF5005F095FB2846EFE700003E
:103C6000342C014070B500250B48046801E00A4877
:103C7000046804F045000028F9D004F0040028B1DD
:103C80000325042005F07EFB284670BD40F2FF505E
:103C900005F078FB2846F8E7342C01402DE9F04187
:103CA00006460F464FF000082248056801E021480B
:103CB000056805F045000028F9D005F0040038B18A
:103CC0004FF00308042005F05DFB4046BDE8F0819D
:103CD00005F0010030B14FF00108012005F052FB62
:103CE0004046F3E705F08CFBB04203D04FF01008DC
:103CF0004046EBE740F2FF5005F044FB002005F0A2
:103D0000A5FB044604F4604018B9200C38804046F6
:103D1000DCE704F4005008B11320D7E704F4804036
:103D200008B11020D2E704F4004008B10F20CDE71D
:103D30004046CBE7342C014070B500264FF4803567
:103D40000F48046802E06D1E0D48046804F0450049
:103D500008B9002DF7D115B104F0040028B10326ED
:103D6000042005F00FFB304670BD04F0400028B180
:103D70000026402005F006FB3046F5E73046F3E725
:103D8000342C014010B506F031FA10BD0246094B43
:103D90009A4201D2084801E00648103801F0005369
:103DA0001BB1064B0B40C36002E0044B0B40836029
:103DB0007047000010640240006002407D0F7D0FDC
:103DC00021B1026842F00102026003E0026822F0C1
:103DD0000102026070470000016821F001010160EA
:103DE0000021016041608160C16001612121416168
:103DF0004A49884204D13D21484A103A91608CE0FA
:103E000046491831884205D14FF47461434A103A4B
:103E1000916082E041493031884205D14FF47411FC
:103E20003E4A103A916078E03C494831884205D1D9
:103E30004FF07461394A103A91606EE03749603151
:103E4000884204D13649354A103AD16065E0334999
:103E50007831884204D13349304A103AD1605CE06D
:103E60002E499031884204D12F492C4A103AD16012
:103E700053E02A49A831884205D14FF03D51274AE5
:103E8000103AD16049E02949884204D13D21274AAE
:103E9000083A116041E025491831884205D14FF4B4
:103EA0007461224A083A116037E020493031884273
:103EB00005D14FF474111D4A083A11602DE01B49D9
:103EC0004831884205D14FF07461184A083A1160B0
:103ED00023E016496031884204D11149134A121F68
:103EE00011601AE011497831884204D10D490F4A16
:103EF000121F116011E00D499031884204D10A4926
:103F00000A4A121F116008E00849A831884204D10A
:103F10004FF03D51054A121F11607047106002407A
:103F20003D000020400F002000003D2010640240B2
:103F300021B1026842F02002026003E0026822F030
:103F400020020260704710B501F080034BB122B12E
:103F5000436943F08003436103E0436923F0800336
:103F6000436180290BD02AB1036801F01E0423436A
:103F7000036004E0036801F01E04A343036010BD66
:103F800010B500220268134B1A40CC680B6823431B
:103F90004C6923438C692343CC6923430C6A234334
:103FA0004C6A23438C6A23434C6B23438C6B23431F
:103FB0001A430260426922F00702D1E90B3423431D
:103FC0001A4342610B6943604B6883608B68C3602E
:103FD00010BD00003F801CF0704710B5002000F0BD
:103FE0000DF810BD10B5044603E04FF47A7000F0F0
:103FF00005F8201EA4F10104F7D110BD70B54FF0F3
:10400000E0256D6945434FF47A76B5FBF6F01BE089
:104010004FF0E025A969B0F5FA7F04D94FF4FA749E
:10402000A0F5FA7001E00446002000BF4FF0E02543
:10403000AA69914201D98B1A04E04FF0E0256D691D
:104040000D44AB1AA342F1D30028E1D170BD0000AA
:1040500010B504F010FE002003F0C8F807F010FCC3
:1040600002F0F4FF54A1022003F05CFD52A10320F2
:1040700003F058FD50A1042003F054FD002101205D
:1040800003F096FC0021022003F092FC00210320A3
:1040900003F08EFC0021042003F08AFC002105209F
:1040A00003F086FC4FF0FF320021282004F0BCFA18
:1040B0001420FFF797FF4FF0FF320021102004F08B
:1040C000B3FA7820FFF78EFF02F0B0FF0A20FFF767
:1040D00089FF9FED3A0A082003F082FC0A20FFF7CF
:1040E00081FF9FED360A072003F07AFC0A20FFF7D4
:1040F00079FF9FED320A062003F072FC0A20FFF7D9
:1041000071FF9FED2E0A052003F06AFC0A20FFF7DD
:1041100069FF9FED2A0A042003F062FC0A20FFF7E2
:1041200061FF9FED260A032003F05AFC0520FFF7EC
:1041300059FF9FED220A022003F052FC0520FFF7F1
:1041400051FF9FED1E0A012003F04AFC0A20FFF7F1
:1041500049FF10211A4800F040FE4FF40051194861
:1041600000F03BFE0821174800F037FE4FF4805165
:10417000144800F032FE0121114800F02EFE082103
:104180000F4800F02AFE9FED0D0A07F089FB002181
:10419000012002F0F1FE00200B4908609FED070AA4
:1041A00002F056FA4FF40061084800F016FE08A02D
:1041B00002F0E0FF10BD0000000000000000000061
:1041C00000000240000C02400400002000100240E9
:1041D000446973706C61795F4F46460D0A000000B8
:1041E00010B54FF400612B4800F0F9FD06F016FE03
:1041F0000121084602F0C0FE9FED270A02F028FACE
:104200009FED260A022003F0EBFB3220FFF7EAFEC7
:104210009FED210A072003F0E3FB0A20FFF7E2FEEF
:104220009FED1D0A012003F0DBFB3220FFF7DAFED1
:1042300007F02EFB3220FFF7D5FE02F0FFFE142020
:10424000FFF7D0FE02F0F2FE1E20FFF7CBFE02F0D9
:10425000F5FE7820FFF7C6FE03F0DEFB02F020FF3C
:104260006420FFF7BFFE00210D4A1170084606F0DA
:1042700093FF01200B490860002103F099FB002106
:10428000022003F095FB04F0F1FC0A20FFF7AAFEE0
:1042900010BD00000010024033335340CDCC6C40C1
:1042A00008000020040000201CB54FF400614C48B9
:1042B00000F095FD06F0B2FD0121084602F05CFE1B
:1042C0009FED480A02F0C4F99FED470A022003F06F
:1042D00087FB3220FFF786FE9FED420A072003F09E
:1042E0007FFB0A20FFF77EFE9FED3E0A012003F0D0
:1042F00077FB3220FFF776FE07F0CAFA3220FFF78D
:1043000071FE02F09BFE1420FFF76CFE02F08EFEA1
:104310001E20FFF767FE02F091FE7820FFF762FE95
:1043200003F07AFB4FF0FF320021112004F07CF9FA
:104330003C20FFF757FE4FF0FF308521012300227C
:10434000CDE9001011462A2004F06EF94FF0FF303D
:10435000C12101230022CDE9001011462B2004F0D9
:1043600063F94FF0FF33C1220121442004F05CF9CE
:104370004FF0FF320021352004F056F94FF0FF32A4
:104380002021532004F050F94FF0FF3277213A20DA
:1043900004F04AF94FF0FF320021292004F044F9DB
:1043A0005020FFF71FFE11A002F0E4FE6420FFF78B
:1043B00019FE00210F4A1170084606F0EDFE01209B
:1043C0000D490860002103F0F3FA0021022003F0F8
:1043D000EFFA04F04BFC0A20FFF704FE1CBD0000BE
:1043E0000010024033335340CDCC6C4031312D327C
:1043F000390D0A0008000020040000202DE9F047D4
:1044000006460F4615469846DDE90849104800EB78
:10441000041006600E4800EB041087800C4800EB87
:10442000041085600A4800EB0410A0F80C800948CD
:10443000C0F80090304600F093FC284600F090FC55
:10444000204604F0E3FC204604F032FDBDE8F0878E
:10445000703D0120180F00202DE9F04107460D4660
:10446000384604F0FBFC002615E006F08DFE3846C9
:1044700004F0CCFC06F088FE384604F0ADFC06F0F3
:1044800083FE6006040E384604F002FD08B1601C8D
:10449000C4B2701CC6B2082EE7DB384604F0B6FC86
:1044A00006F072FE1DB1384604F002FD02E0384607
:1044B00004F0D4FC06F068FE384604F08DFC06F0EB
:1044C00063FE384604F0A2FC06F05EFE2046BDE81E
:1044D000F08110B50446204604F0C0FC06F054FEFE
:1044E000204604F079FC06F04FFE204604F0E0FC84
:1044F00006F04AFE204604F089FC06F045FE10BD99
:1045000010B50446204604F0D3FC06F03DFE2046DC
:1045100004F062FC06F038FE204604F09FFC06F032
:1045200033FE10BD2DE9F04106460C46012700255B
:1045300016E004F0800018B1304604F08FFC02E071
:10454000304604F0B5FC304604F046FC06F01CFE94
:10455000304604F05BFC6006040E06F015FE6D1C90
:10456000082DE6D3304604F079FC06F00DFE304607
:1045700004F032FC06F008FE304604F089FC00B17D
:104580000027304604F042FC06F0FEFD3846BDE848
:10459000F08100000149486170470000009002402E
:1045A00001460868C0F30D40704700B5024600237D
:1045B000106800F0004058B9106800F4004038B9A5
:1045C000106800F4807018B11046FFF7E9FF034649
:1045D000184600BD10B501E012F0EAFB064800687D
:1045E000FFF7E3FF0028F7D14020FFF7D3FF4FF498
:1045F0008030FFF7CFFF10BD200F00201EB5002137
:104600000022009201920292214A1268126802F07E
:10461000004282B1002200921E4A526902F08002DA
:1046200022B180221B4B5A6100229A609DE81C0037
:1046300080E81C001EBD164A1268126802F400428F
:10464000B2B9134A1268126802F4807282B1104A39
:104650001268126802F4007252B10D4A12681268B0
:10466000C2F30D42111F0A4A12689268019200E0DB
:1046700000210091064A12680292054A1268D26827
:10468000034B1A609DE81C0080E81C0000BFD1E7C6
:10469000200F00200090024010B50E48006801284D
:1046A00013D1082000F024F878B10120FFF79AFC1C
:1046B0000821094800F088FB012803D100200749A0
:1046C000086002E0012006490870082000F00AF89E
:1046D00010BD0000040000200008024090000020EF
:1046E000010000200149086070470000143C0140AF
:1046F00001460020034A12680A400AB1012000E086
:1047000000207047143C01401CB50121084604F00C
:1047100045F80121182004F031F84CF6F300009020
:1047200002208DF8040000208DF8060003208DF88B
:10473000050001208DF8070069462C4800F0A4FA16
:104740004FF4F060009002208DF8040000208DF8F6
:10475000060003208DF8050001208DF8070069464A
:10476000234800F091FA0C220521204800F0D4FAE9
:104770000C2204211D4800F0CFFA0C220B211B480B
:1047800000F0CAFA0C220621184800F0C5FA0C22E3
:104790000721164800F0C0FA0C220E21134800F041
:1047A000BBFA0C220F21114800F0B6FA0C220021AE
:1047B0000E4800F0B1FA0C2201210C4800F0ACFACE
:1047C0000C2207210A4800F0A7FA0C220821084809
:1047D00000F0A2FA0C220921054800F09DFA0C22F3
:1047E0000A21034800F098FA1CBD0000000C0240AA
:1047F0000010024010B5FFF787FF00F007F810BD6A
:104800000149087070470000FFFF006000B59DB0CF
:1048100006200790002008905020099000200A9060
:104820000B900C900D9002200090002001901648F3
:1048300000680290002003900490059006900E906E
:104840000F90082010900020119012904FF40070EB
:104850001490800113900020159016904FF4805012
:104860001790400018904000199000201A9007A857
:104870001B90CDF870D00EA800F022F80121002086
:1048800000F004F81DB000BDDC0E002051B1820024
:10489000A2F1C042126842F001038200A2F1C042BC
:1048A000136009E08200A2F1C0421268034B1A4073
:1048B0008300A3F1C0431A6070470000FEFF0F00A1
:1048C00030B50021002200230468A400A4F1C044F4
:1048D0002168424C2140D0E901452C43C5682C4356
:1048E00005692C4345692C4385692C43C5692C43D4
:1048F000056A2C43456A2C43856A2C43C56A2C43C0
:10490000056B2C4321430468A400A4F1C04421603A
:104910008468082C0BD10468A400A4F1C044246866
:1049200044F040050468A400A4F1C0442560046874
:10493000641CA400A4F1C044226802F04042446B0D
:104940002468456B6D6844EA0514456BAD6844EA1C
:104950000524456BAD8944EA0544456B2D8A44EA3C
:104960000554456B2D7D44EA0564456BAD692C43C8
:1049700022430468641CA400A4F1C0442260C46AF9
:10498000B4F5804F20D10468A400A4F1C044D4F849
:104990000431134C2340846B2468856B6D6844EAB2
:1049A0000514856BAD6844EA0524856BAD8944EA3E
:1049B0000544856BAD692C4323430468A400A4F12E
:1049C000C044C4F8043107E06FF070450468A400E7
:1049D000A4F1C044C4F8045130BD00008000F7FFCA
:1049E0000000F0CF2DE9FC4107460D4600260024CB
:1049F00000200090019008205B490860102048606A
:104A0000402088600020C8604FF48060086108463C
:104A100004F05AFD1020FFF765F8044614B1204653
:104A2000BDE8FC815148008800044F4908603720E8
:104A30004860402088600020C8604FF480600861B2
:104A4000084604F041FD3720FFF74CF804460CB14E
:104A50002046E5E74FF0FF304549086008204860F0
:104A6000302088600220C860002008610120486171
:104A7000084604F09FFC00203B4908603320486052
:104A8000402088600020C8604FF4806008610846BC
:104A900004F01AFD3320FFF725F804460CB1204638
:104AA000BEE709E04FF4001004F0B0FC20B104F0C0
:104AB00005FD4DF82600761C2E48006840F22A615C
:104AC00008400028EED0082004F0A0FC28B10820FF
:104AD00004F058FC04242046A2E7022004F096FCCF
:104AE00028B1022004F04EFC0224204698E7202042
:104AF00004F08CFC28B1202004F044FC062420465D
:104B00008EE74FF4007004F081FC30B14FF4007078
:104B100004F038FC0724204682E740F2FF5004F0FE
:104B200031FC00980006009901F47F4140EA012021
:104B3000009901F47F0140EA1120009940EA1160D8
:104B4000686001980006019901F47F4140EA012064
:104B5000019901F47F0140EA1120019940EA1160B6
:104B6000286020465CE70000E03B0120C80E0020E2
:104B7000F43B0120342C014010B5044634B1012C23
:104B800013D0022C20D0032C3CD12CE0002101209A
:104B900003F07CFCFF231A4619461B4801F06CFE0B
:104BA0000121084603F072FC2CE00021012003F0F3
:104BB0006DFC00231A461946134801F05DFE0121E1
:104BC000084603F063FC1DE00021012003F05EFCB9
:104BD00000231A46FF210C4801F04EFE0121084631
:104BE00003F054FC0EE00021012003F04FFCFF23F2
:104BF0001A461946044801F03FFE0121084603F019
:104C000045FC00BF00BF10BD2C1E002070B5FDF795
:104C100043F90546FDF732F90EA002F0ABFA002188
:104C200010480078FDF7E8F9044621460EA002F08E
:104C3000A1FAFDF741F90CF027FF0DF0FBFB0EF098
:104C4000CDF80FF04BFC054629460DA002F092FA74
:104C500070BD000043413431305F496E6974207388
:104C60000A0D00000000002043413431305F496EDE
:104C7000697420656E643D2025640A0D0000000003
:104C800025730D0A00000000F0B50A46002100233C
:104C9000002400BF3DE0012505FA01F3156805EA8F
:104CA00003049C4234D105684F000326BE40B5433F
:104CB000056015794E00B5400668354305601579E5
:104CC000012D02D01579022D16D185684F000326DB
:104CD000BE40B543856055794E00B5408668354382
:104CE0008560456801268E40B543456045689679E4
:104CF0008E40B6B235434560C5684F000326BE40BE
:104D0000B543C560D5794E00B540C6683543C5602A
:104D1000491C1029BFD3F0BDF0B5002300244D0776
:104D2000ED0E02FA05F3CE1000F1200555F82650DD
:104D30004E07F70E0F26BE40B543CF1000F12006F8
:104D400046F82750CE1000F1200555F8265045EAC8
:104D50000304CE1000F1200545F82640F0BD000008
:104D600070B505461649681A8D421AD009DC1548F7
:104D7000284480B1B0F5806F0FD0B0F5006F18D126
:104D80000DE0B0F5806F0ED0B0F5006F0DD0B0F52E
:104D9000406F0ED10BE001240BE0022409E0042453
:104DA00007E0082405E0102403E0202401E040246B
:104DB00000BF00BF0121204603F0E0FC70BD0000F1
:104DC000000C02400000FEBF0246002013690B40A9
:104DD0000BB1012000E00020704741837047018340
:104DE0007047000070B5002400F02AFBB54991ED32
:104DF000000AF2EE040A20EE200ABCEEC00A10EE11
:104E0000100A01F0B5FB0A20FFF7ECF800F034FBC4
:104E10004FF4FA70FFF7E6F8AB48007818283DD257
:104E2000DFE800F00D1318210E141C20252B0C12A6
:104E3000262C272D313233343815161700BF00BF0A
:104E40000120A249087029E000BF00BF00BF00BFD9
:104E500000BF00BF00209D4908701FE005209B494E
:104E600008701BE000BF04209849087016E000BFDE
:104E700000BF09209549087010E000BF00BF08205E
:104E8000924908700AE000BF00BF00BF20208F4990
:104E9000087003E024208D49087000BF00BF8B48D4
:104EA000007818B189480078202804D18848006823
:104EB0008849086004E08648006840088549086021
:104EC00082480078042803D080480078242814D130
:104ED0007F4800688049096848434508C5F30800D1
:104EE00040B1680A7D49086008460068401C4002DD
:104EF000086016E07948056013E075480068764957
:104F0000096800FB01F5C5F3090040B1A80A73491F
:104F1000086008460068401C8002086001E06F4895
:104F20000560302000F030FB002000F03FFB002047
:104F300000F03CFB002000F039FB002000F036FBC5
:104F4000122000F021FB63490988491EC1F30720A4
:104F500000F02CFB5F490978491EC8B200F026FB1F
:104F60005D490988491EC1F3072000F01FFB5A491B
:104F70000978491EC8B200F019FB132000F004FBA9
:104F800053490968544A12685143080E00F00EFB59
:104F90004F490968504A12685143C1F3074000F075
:104FA00005FB4B4909884C4A12885143C1F307203D
:104FB00000F0FCFA46490978474A12785143C8B2D2
:104FC00000F0F4FA102000F0DFFA4048007800F01A
:104FD000EDFA4348007810B944F0010400E000BF46
:104FE0004048007800B901E044F002043E480078EF
:104FF00000B901E044F004043C48007810B944F0E2
:10500000080400E000BF172000F0BEFA204600F0C0
:10501000CDFA152000F0B8FA35490988491EC1F3C8
:10502000072000F0C3FA32490978491EC8B200F0DF
:10503000BDFA30490988491EC1F3072000F0B6FACD
:105040002C490978491EC8B200F0B0FA2A490988EB
:10505000491EC1F3072000F0A9FA27490978491E23
:10506000C8B200F0A3FA162000F08EFA234909888E
:10507000491EC1F3072000F099FA20490978491E1A
:10508000C8B200F093FA1E490988491EC1F30720EF
:1050900000F08CFA1A490978491EC8B200F086FA65
:1050A00018490988491EC1F3072000F07FFA154905
:1050B0000978491EC8B200F079FA282000F064FA95
:1050C00070BD0000240E00204C0E00204D0E00206C
:1050D000280E0020500E00202C0E0020540E002020
:1050E000480E0020490E00204A0E00204B0E0020E2
:1050F000380E0020340E0020300E0020440E002018
:10510000400E00203C0E00201CB50121082003F0B9
:1051100035FB4FF48060009001208DF804000020E2
:105120008DF8060003208DF8050001208DF807009A
:1051300069460248FFF7A8FD1CBD0000000C0240B4
:1051400010B50F2000F020FA00F0ACF9044624025C
:1051500000F0A8F90443240200F0A4F90443240257
:1051600000F0A0F90443204610BD10B504460E20FF
:1051700000F00AFA00F096F9207000F093F96070E0
:1051800000F090F9A07010BDF0B505460F46294813
:105190000078042803D02748007824280CD126481A
:1051A000006807FB00F424480068B5FBF0F100FB41
:1051B000115086B2344404E02048006807FB00F434
:1051C0002C441F4800681F49096800FB0144202047
:1051D00000F0DAF9200E00F0E9F9C4F3074000F01E
:1051E000E5F9C4F3072000F0E1F9E0B200F0DEF9E0
:1051F000301200F0DBF9F0B200F0D8F90D48007879
:10520000042803D00B48007824280BD10A480068F2
:10521000854203D2002000F0C9F906E0012000F029
:10522000C5F902E0002000F0C1F9222000F0ACF93D
:10523000F0BD00004D0E0020500E0020280E002072
:10524000540E0020580E00202DE9F04F95B04FF07D
:105250000009C846FFF7CEFAFFF756FF63A001F03A
:1052600089FF01F057F902900298002807DA62A03E
:1052700001F080FF4FF0FF3015B0BDE8F08F00F077
:10528000DFF80A20FEF7AEFE00F0F6F84FF4FA70F1
:10529000FEF7A8FEFFF754FF07465A48B7FBF0F7A2
:1052A000C92F05D055A001F065FF6FF00100E3E7BD
:1052B00055A001F05FFF002000F040F9002418E045
:1052C000534951F824200B46611C33F8211042EA5F
:1052D000014000F071F94E4A611C52F821100A0A8F
:1052E0004B4BA11C53F8211042EA012000F064F955
:1052F000E41C122CE4D3002000F009F900242AE079
:1053000000F0D0F805462D0200F0CCF805432D0240
:1053100000F0C8F8054300F0C5F80646360200F074
:10532000C1F80643360200F0BDF80643AAB2204693
:10533000641C03A941F820204FF47F4000EA0620B6
:1053400040EA15422046641C41F82020320A2046DB
:10535000641C41F82020122CD2D300240BE003A8B7
:1053600050F824002A4951F82410884202D04FF006
:10537000010902E0641C122CF1D300BFB9F1000F47
:1053800031D024A001F0F6FE002426E003A850F856
:1053900024001F4951F8241088421DD00320B4FB7B
:1053A000F0FAB4FBF0F100FB114000F1010B03A88F
:1053B00050F824000090164850F8243052465946C0
:1053C00018A001F0D7FE0320B4FBF0F100FB11415F
:1053D0000120884040EA0808641C122CD6D348F00B
:1053E0001000404248E7002046E7000047505520A3
:1053F000496E697420000000504C4C204E470A0D45
:1054000000000000809698004F4B0A0D000000003D
:105410005C28030847505520534452414D204E47C5
:105420000A0D00002053256420413D25642C20579F
:105430003D2530345820523D253034580A0D0000A7
:105440001CB54FF48060009001208DF8040000200E
:105450008DF8060003208DF8050001208DF8070067
:1054600069460448FFF710FC4FF480610148FFF7DC
:10547000B4FC1CBD000C02401CB54FF480600090D1
:1054800000208DF804008DF8060003208DF805003B
:1054900001208DF8070069460148FFF7F5FB1CBDA8
:1054A000000C0240014800787047000000000160D5
:1054B00010B50446562000F067F8204600F076F854
:1054C00010BD10B50446572000F05EF8204600F0ED
:1054D0006DF810BD10B50446502000F055F8204678
:1054E00000F064F810BD10B50446512000F04CF8EF
:1054F0000120FEF783FDC4F3074000F057F8C4F322
:10550000072000F053F8E0B200F050F810BD10B5DD
:105510000446232000F038F8200E00F047F8C4F3CA
:10552000074000F043F8C4F3072000F03FF8E0B272
:1055300000F03CF8252000F027F810BD10B5044617
:10554000202000F021F8200E00F030F8C4F30740CE
:1055500000F02CF8C4F3072000F028F8E0B200F0C7
:1055600025F8002000F022F8002000F01FF80020AD
:1055700000F01CF8222000F007F810BD0149087067
:10558000704700000000016000B5034600BF032023
:10559000FFF736F9FFF786FF024682F00200002887
:1055A000F5D10148037000BDFFFF0060014908709C
:1055B0007047000000000160010C034A1170010AED
:1055C0001170107070470000000001602DE9F84F65
:1055D00006460C4617469846DDE90DABDDF82890E7
:1055E0000020FE490870FE4803F090FAFD49FC488F
:1055F00006F0B4F9002F49D001F014FE0090FAA093
:1056000001F0B8FDF8A006F099F90FF0EDFDF348B0
:105610000078FFF7B1FAC820FEF7E4FC022C05D1B0
:105620002146F3480F9A00F077FB0EE0012E05D1DA
:10563000EF480F9913F034F9054606E09FEDED0AA7
:10564000EB480F9914F0B4FB0546002D08DAEA4840
:10565000D0F86818A0F6A47088472846BDE8F88FEF
:10566000E548D0F86818A0F6A6508847022C05D166
:10567000E148D0F86818A0F6A4708847009800F0B8
:105680003DFB0090DDA0009906F058F9BBF1000F3A
:105690007DD001F0C7FD0090DBA001F06BFD4FF065
:1056A000FF330022FE21152005F05CFB4FF0FF3296
:1056B0003821052005F056FB4FF0FF3327225121FA
:1056C000152005F04FFB4FF0FF330022FE2115207F
:1056D00005F048FB4FF0FF3300226621152005F04E
:1056E00041FB002005F058FD4FF4FA70FEF77AFCFC
:1056F000022C05D12146C7480F9A00F00DFB0EE0A1
:10570000012E05D1C3480F9913F0CAF8054606E0EB
:105710009FEDB80ABF480F9914F04AFB0546002DCB
:1057200007DABD48D0F86818A0F6A4708847284664
:1057300094E7B848B0F86402401E81B2B548A0F8BA
:105740006212B0F86202002803DA0021B148A0F822
:105750006212B048B0F89A02401E81B2AD48A0F87B
:105760009812B0F8D002401E81B2AA48A0F8CE121A
:10577000B0F86202401E81B2A648A0F86012B0F8EC
:105780009802401E81B2A348A0F8961200E054E0AF
:10579000B0F8CE02401E81B29E48A0F8CC12B0F8FC
:1057A0006002401E81B29B48A0F85E12B0F85E0213
:1057B000002803DA00219748A0F85E129548B0F857
:1057C0009602401E81B29348A0F89412B0F8CC0221
:1057D000401E81B28F48A0F8CA120021A0F85C12C6
:1057E000B0F85C02002802DA8A48A0F85C12894806
:1057F000B0F89402401E81B28648A0F892120021AF
:10580000A0F8C8128448D0F86818A0F6A6508847B7
:10581000022C05D18048D0F86818A0F6A4708847FB
:10582000009800F06BFA00907CA16D48009A12F08D
:10583000D9FB7EA0009906F081F8B9F1000F4CD099
:1058400001F0F0FC00907CA001F094FC7AA006F03E
:1058500075F80FF0F3FC61480078FFF78DF9C82068
:10586000FEF7C0FB022C05D1214676480F9A00F0C6
:1058700053FA0EE0012E05D172480F9913F010F87B
:10588000054606E09FED5B0A6E480F9914F090FA0A
:105890000546002D07DA6C48D0F86818A0F6A47009
:1058A00088472846DAE669A14D4803F09DFC664822
:1058B000D0F86818A0F6A6508847022C05D1624897
:1058C000D0F86818A0F6A4708847009800F016FA7F
:1058D000009062A0009906F031F8B8F1000F48D0AE
:1058E00001F0A0FC009060A001F044FC5EA006F076
:1058F00025F80FF04DFC39480078FFF73DF9C82036
:10590000FEF770FB022C05D1214659480F9A00F092
:1059100003FA0EE0012E05D155480F9912F0C0FF91
:10592000054606E09FED530A51480F9914F040FADE
:105930000546002D07DA5048D0F86818A0F6A47084
:10594000884728468AE64C48D0F86818A0F6A65042
:105950008847022C05D14848D0F86818A0F6A470F2
:105960008847009800F0CAF9009044A0009905F01B
:10597000E5FFBAF1000F2FD001F054FC009042A0D7
:1059800001F0F8FB0FF0B8FB002005F005FC4FF428
:10599000FA70FEF727FB022C05D121463D480F9AED
:1059A00000F0BAF90EE0012E05D13A480F9912F035
:1059B00077FF054606E09FED2F0A36480F9914F051
:1059C000F7F90546002D69DA3348D0F86818A0F6D3
:1059D000A4708847284641E67BE05FE0900D0020F8
:1059E00088B600202700002049444C450A000000EA
:1059F000583C00209A99993E584C0020414F443A17
:105A000025646D730D0A000052554E5F4E4F5232A1
:105A10000A000000A8850020A89500206E6F723251
:105A2000286D73293A2C25640D0A00006E6F7232BE
:105A30003A25646D730D0A0052554E5F4E6F726DBC
:105A4000616C0A00C8540020C86400200D0A525539
:105A50004E5F4E6F726D616C0D0A00004E4F523AF0
:105A600025646D730D0A000048424D0A00000000D5
:105A7000E8230020CDCCCC3DE833002048424D3A0D
:105A800025646D730D0A000052554E5F4E4F523320
:105A90000A000000386D0020387D00207848D0F8DA
:105AA0006818A0F6A6508847022C05D17448D0F893
:105AB0006818A0F6A4708847009800F01FF90090BD
:105AC00070A17448009A12F08DFA73A0009905F045
:105AD00035FF0C98D0B301F0A5FB009071A001F048
