:020000040801F1
:1000000028D70020A1010108B9520108AD4201081A
:100010001D520108851C01087F8D010800000000A9
:100020000000000000000000000000007B840108C8
:10003000352E0108000000002D570108C98801086D
:10004000BB010108BB010108BB010108BB0101089C
:10005000BB010108BB010108BB010108BB0101088C
:10006000BB01010835330108BB010108BB010108D0
:10007000BB010108BB010108BB010108BB0101086C
:10008000BB010108BB010108BB010108BB0101085C
:10009000D51C0108BB010108BB010108BB01010817
:1000A000BB010108BB010108BB010108BB0101083C
:1000B000BB010108BB010108BB010108BB0101082C
:1000C000BB010108BB010108BB010108BB0101081C
:1000D000BB010108ED8A0108BB0101089D8B0108E5
:1000E000BB010108BB010108BB010108BB010108FC
:1000F000BB010108BB010108BB010108BB010108EC
:10010000BB01010889660108BB010108BB010108A8
:10011000BB010108BB010108BB010108BB010108CB
:10012000BB010108BB010108BB010108E12B01086B
:10013000BB01010871320108BB010108BB010108C4
:10014000BB010108BB010108BB010108BB0101089B
:10015000BB010108BB010108BB010108BB0101088B
:10016000BB010108BB010108BB010108BB0101087B
:10017000BB010108BB010108BB010108BB0101086B
:10018000BB010108BB010108DFF810D001F096F8AF
:100190000048004795E20108AFF3008028D700200F
:1001A0000648804706480047FEE7FEE7FEE7FEE711
:1001B000FEE7FEE7FEE7FEE7FEE7FEE7CD89010882
:1001C000890101082DE9F05F0546002092469B4613
:1001D00088460646814640241BE02846414647465D
:1001E000224600F09AFC53465A46C01A914110D359
:1001F00011461846224600F081FC2D1A67EB0108D3
:100200004F4622460120002100F078FC17EB000940
:100210004E41201EA4F10104DFDC484631462A4647
:100220004346BDE8F09F0000004870477C1B020871
:1002300010B50446FFF7F8FF0068005D00F001000C
:1002400010BD40EA01039B0703D009E008C9121F53
:1002500008C0042AFAD203E011F8013B00F8013B80
:10026000521EF9D27047D2B201E000F8012B491EAC
:10027000FBD270470022F6E710B513460A46044643
:100280001946FFF7F0FF204610BD30B505462A4657
:100290000B4612F8010B13F8014B08B1A042F8D03D
:1002A0001CB1002802D06D1CF1E7284630BD10B506
:1002B000044604E00B7800F8013B03B1491C521ED0
:1002C000F8D2204610BDCAB2401E10F8011F8A4263
:1002D00002D00029F9D100207047421C10F8011B00
:1002E0000029FBD1801A704710B5002200E0521C93
:1002F000835C8C5CA34201D1002BF8D1D8B2E1B26F
:10030000401A10BDCBB203E00178994203D0401CE3
:10031000521EF9D20020704710B5044600E0401C80
:100320000378002BFBD100E0401C521E04D311F8CF
:10033000013B0370002BF7D100210170204610BD56
:10034000034611F8012B00F8012B002AF9D11846B9
:100350007047000070B50F4D00B92868002412E006
:100360000A4602E09E4203D0521C1378002BF9D1BA
:10037000DAB2224305D02BB124B1002100F8011BD1
:1003800004E00446401C0678002EE9D1286020468F
:1003900070BD0000780E00200022CBB20178994297
:1003A00000D10246401C0029F8D1104670470000D9
:1003B00000B58DB0099000920B904FF0FF300A907D
:1003C00000200C9004480690044807906A4609A84B
:1003D00000F084FC0DB000BDF90C0108170D0108F8
:1003E0000FB400B58DB010A909900B9000914FF09B
:1003F000FF300A9000200C900548069005480790B1
:100400006A4609A80F9900F069FC0DB05DF814FB6D
:10041000F90C0108170D01082DE9FF5F1D464FF08B
:10042000FF3BD5E9014691465F464FF00008A969B8
:100430007F1C01988847296A824688470028F6D1A0
:10044000BAF1FF3F0CD024F4C064002E19DD600621
:1004500014D5BAF12B0F09D0BAF12D0F0ED103E04C
:10046000584604B0BDE8F09F44F48064A9697F1C3D
:1004700001988847761E8246002E02DDBAF1300FC1
:1004800003D0B9F1000F26D032E0A969761E44F4FA
:1004900000747F1C019888478246002E05DDBAF162
:1004A000780F06D0BAF1580F03D0B9F1000F10D071
:1004B0001EE0B9F1000F02D0B9F1100F18D1A969EF
:1004C000761E24F400747F1C019888478246102011
:1004D00002E0082000E00A20814609E008FB090844
:1004E000A969761E44F400747F1C019888478246EF
:1004F000002E05DD4946504600F031FB0028EDDABC
:10050000E96901988847A00502D46FF00100A8E7C7
:10051000E00725D1600613D5600502D5C8F10000BB
:1005200000E0404629680A1D2A600968220501D5B5
:10053000087015E0220701D5088011E008600FE07F
:100540002868011D29600068210502D580F8008017
:1005500006E0210702D5A0F8008001E0C0F8008085
:1005600038467EE72DE9FF5FD2E901A74FF000088A
:10057000916999461446DDF838B046460198884797
:10058000054659EA0B0005D009E0A169761C0198DF
:1005900088470546216A284688470028F5D1681C07
:1005A00003D05FEACA7005D015E04FF0FF3004B009
:1005B000BDE8F09F2068011D2160D0F800800AE0AE
:1005C0005FEACA7001D108F8015BA169761C7F1E41
:1005D000019888470546002F1ADD681C18D0B9F12C
:1005E000000F0DD0E81705EBD060421120F01F007E
:1005F00059F822102A1A012090400142E0D107E068
:10060000BBF1000FDCD1216A284688470028D7D0EB
:10061000E16901988847BBF1000F07D1002E05DD85
:100620005FEACA7002D1002188F80010A068B842C1
:1006300003DDBBF1000F03D017B16FF00100B6E787
:100640003046B4E770B5064609F05CF80468054624
:100650000A220021304600F06FFB2C6070BD2DE9AE
:10066000FE4F804681EA0300C00F0C46009021F047
:10067000004123F00045B8EB0200A94105D24046F5
:10068000214690461C460B46024623F0004010438C
:1006900047D0270DC7F30A00C3F30A510290401A4E
:1006A000019040286BDAC3F3130040F4801B0098DC
:1006B000924620B10023D2EB030A63EB0B0B0198A7
:1006C0005946C0F14002504600F018FA06460D4661
:1006D00050465946019A00F030FA10EB080061418B
:1006E000002487EA115284EAE7731A4340D0009A43
:1006F00062B3019A012A4FEA075215DC001B61EB35
:1007000002014FF0004202EA0752CDE90042001C0C
:1007100041F5801132462B4600F08CFB03B0BDE85A
:10072000F08F40462146F9E7001B61EB0201001CF7
:1007300041F5801300185B412018A2F5001747EB24
:10074000030140EAD570B6196D4111E06D084FEA1A
:10075000360645EAC0754FEA0752001B61EB0201FD
:10076000001C41F5801149084FEA30000019514141
:1007700032462B4603B0BDE8F04F00F04CBB00986A
:10078000012240000023D0EB020263EBE0730098EB
:1007900021464FEAE074B8EB000061EB0401E9E7A1
:1007A00083F000435BE781F0004158E72DE9FE4FFD
:1007B00081EA030404F0004421F0004100944FF06A
:1007C000000B23F0004350EA01045ED052EA030418
:1007D0005BD0C3F30A54C1F30A552C44A4F2F3349A
:1007E0000194A0FB0254C1F3130141F48011C3F33F
:1007F000130343F4801301FB024400FB034E840AFD
:10080000970A44EA815447EA8357A4FB0768029594
:100810008D0A05FB07854FEA932C04FB0C54270532
:10082000029D4FEA065847EA1637B5EB08056EEB0E
:10083000070C870E920E47EA811742EA8312A7FB44
:100840000201B6EB0B0164EB00042B0D43EA0C3301
:100850005E1844EB1C50DA465146E7FB0201C5F333
:1008600013044FEA0B3343EA14534FEA0432019C5A
:1008700043EA0603A4F10C040294009CCDE900B401
:1008800000F0D8FA03B0BDE8F08F00200146F9E788
:100890002DE9F04D81EA030404F0004B21F00045FE
:1008A00014464FF0000A23F0004150EA050220D020
:1008B00054EA01021DD0C5F30A570246C5F31303DB
:1008C000C1F31300C1F30A5640F4801543F48013BA
:1008D000A7EB0608101BD64608F2FD3873EB05009F
:1008E00002D308F1010801E092185B41B8F1000F52
:1008F00003DA00200146BDE8F08D00204FF480119E
:10090000064684460EE0171B73EB050705D3121B42
:1009100063EB050306434CEA010C49084FEA30003B
:1009200092185B4150EA0107EDD152EA030012D060
:1009300082EA040083EA0501084305D0101BAB419D
:1009400006D20122002306E000224FF0004302E01D
:100950006FF0010253101AEB06004CEB085110EB3C
:100960000A0041EB0B01BDE8F04D00F054BA30B481
:10097000044696230800214604D0B62330BC00224A
:1009800000F01BBA20460021F8E70EB5C10F80EA3F
:10099000E0700844CA07002140F233438DE80E009E
:1009A0000A460B4600F046FA03B000BD0EB540F211
:1009B000334102910021CDE900110A460B4600F0B7
:1009C00039FA03B000BD70B5C1F30A5201F0004519
:1009D0000024C1F3130140F2FF3341F480119A4225
:1009E00001DA002070BD40F233439A42A2F2334252
:1009F00003DC524200F091F800E090402C43F1D02B
:100A0000404270BDC1F30A5210B5C1F3130140F268
:100A1000FF3341F480119A4201DA002010BD40F208
:100A200033439A42A2F2334203DC524200F075F89B
:100A300010BD904010BD000030B5041E71F10004DF
:100A400004DB4FF00044404264EB0101141E73F1DB
:100A5000000405DB1C464FF00043524263EB0403E5
:100A60008B4208BF824230BD30B5041E71F10004D4
:100A700004DB4FF00044404264EB0101141E73F1AB
:100A8000000405DB1C464FF00043524263EB0403B5
:100A9000994208BF904230BD01F0004330B421F0CC
:100AA000004150EA010206D00A0DA2F56072C1F3BE
:100AB0001301002A02DC30BC00207047440F44EAD6
:100AC000C104C100E01830BC00EBC25000F06CB9AA
:100AD00030B50B46014600202022012409E021FA0E
:100AE00002F59D4205D303FA02F5491B04FA02F50B
:100AF0002844151EA2F10102F1DC30BD202A04DBDE
:100B0000203A00FA02F1002070479140C2F1200320
:100B100020FA03F3194390407047202A04DB203A5F
:100B200021FA02F00021704721FA02F3D040C2F10D
:100B300020029140084319467047202A06DBCB1754
:100B4000203A41FA02F043EAE07306E041FA02F388
:100B5000D040C2F1200291400843194670473A281C
:100B600000D2303820F02002412A01D3A2F1370010
:100B7000884201D34FF0FF3070472DE9FF4F1C46EC
:100B800081B00021D4E9016791464FF0FF358A46D4
:100B90008846A1696D1C02988847216A8346884768
:100BA0000028F6D1BBF1FF3F0CD026F4C066002F21
:100BB0001ADD700615D5BBF12B0F0AD0BBF12D0F36
:100BC0000FD104E04FF0FF3005B0BDE8F08F46F4E0
:100BD0008066A1696D1C029888477F1E8346002F9E
:100BE00002DDBBF1300F03D0B9F1000F2AD025E0B0
:100BF000A1696D1C46F400767F1E029888478346E3
:100C0000002F05DDBBF1780F06D0BBF1580F03D0E4
:100C1000B9F1000F10D011E0B9F1000F02D0B9F115
:100C2000100F0BD1A1696D1C26F400767F1E02986F
:100C300088478346102000E0082081464FEAE9708B
:100C4000009017E00A20F8E74346AAFB092803FBB7
:100C50000980DDF800C07F1E0AFB0C0112EB0B0AB5
:100C600041EBEB78A16946F4007605F101050298A5
:100C700088478346002F06DD49465846FFF76FFF39
:100C80005FEA000BE0D5E16902988847B00502D41D
:100C90006FF0010098E7F00718D1700610D57005C5
:100CA000514605D50023D1EB030163EB080200E0B8
:100CB00042462068031D23600068C0E9001205E079
:100CC0002068011D21600068C0E900A828467BE774
:100CD000026811441378016018467047D1600449D6
:100CE00051610449116200211161114600F0F8BA06
:100CF000D10C010831020108426842B1016811F8C3
:100D0000013B23B1521EC0E9001218467047012171
:100D1000C160881E704742685AB1C368016843B910
:100D200083688B4205D0491E521CC0E90012002086
:100D300070474FF0FF3070472DE9F04791460F465E
:100D400080460446002614F8015B2DB1FFF76CFACB
:100D50000068405DC007F6D12B2D02D02D2D18D094
:100D6000641E4A463946204600F052FC27B13968D5
:100D7000A14201D1C7F8008071054FF002040BD5E4
:100D80004042002803DD08F0BDFC0460A007BDE878
:100D9000F08746F48066E4E70028F8DA08F0B2FC51
:100DA00004606FF00040F2E70029A8BF7047401CC4
:100DB000490008BF20F00100704710B4B0FA80FC71
:100DC00000FA0CF050EA010404BF10BC704749B1AE
:100DD000CCF1200421FA04F411FA0CF118BF01211E
:100DE00021430843A3EB0C01CB1D4FEA00614FEAFE
:100DF000102042BF002010BC704700EBC3501044CD
:100E00000029A4BF10BC7047401C490008BF20F057
:100E1000010010BC704710B5141E73F1000408DA0D
:100E2000401C41F1000192185B411A4301D120F0AE
:100E3000010010BD2DE9F04D92469B4611B1B1FA6B
:100E400081F202E0B0FA80F220329046FFF756FEBF
:100E500004460F4640EA0A0041EA0B0153465A464F
:100E6000084313D0114653EA010019D0C8F14002DB
:100E70005046FFF752FE05460E465046594642463A
:100E8000FFF73CFE084305D0012004E02046394628
:100E9000BDE8F08D0020054346EAE0762C43374359
:100EA0000A986305E40AA0EB08000022FD0A44EA60
:100EB00047540A3002D500200146E9E70105101920
:100EC0006941DDE9084500196941BDE8F04DA2E737
:100ED00070B521F0004303430CD0C1F30A55002440
:100EE000D5EB040564EB0403D617AD1AB34102DB5E
:100EF0000020014670BD201841EB025170BD7047C3
:100F00004831305F384C414E455F6D61696E2B3121
:100F10002E342E302B53657020323520323032354E
:100F20002B31333A35393A30332B00002DE9FF4F5E
:100F3000087883B09946FF2805D0491C2D2804D095
:100F40000024002008E000200BE00124F9E700EB7A
:100F5000800003EB4000491C0B78FF2BF7D104B154
:100F6000404200230293147819461D462D2C01D0CF
:100F70002B2C04D1521C2D2C13D000240294AA46F1
:100F80001478FF2C0FD00A25A3FB057801FB0581FF
:100F90004FF0000C03FB0C11521CE3194AEB01014A
:100FA000EEE70124EAE7814453EA010002D019F593
:100FB000C87F06DA03980021C0E9001107B0BDE838
:100FC000F08F0025AE4E2F46DFF8B882184600F0AD
:100FD000BFFBCDE90001B9F1000002DAC9F100045C
:100FE00000E004460023A74A1AEB030B42EB045A25
:100FF00012E0E00707D02A46334638464146FFF75D
:10100000D5FB074688462A46334610461946FFF761
:10101000CDFB05460E466410002CEAD1DDE9000147
:10102000B9F1000F5A46534606DAFFF731FC3A464B
:101030004346FFF72DFC05E0FFF7B8FB3A46434671
:10104000FFF7B4FB029A0AB181F00041039AC2E9AA
:101050000001B3E72DE9FF4F1F468DB0D7E90146E8
:101060004FF0FF382E2045464FF000090B90B9692C
:101070006D1C0E988847396A824688470028F6D149
:10108000BAF1FF3F0AD024F4D064002E11DDBAF18A
:101090002B0F08D0BAF12D0F0BD102E0404611B052
:1010A0008DE744F48064B9696D1C0E9888478246C8
:1010B000761E6946600501D52D2000E02B208DF8B5
:1010C000000001F1010B0DF1200809E0B9696D1C68
:1010D0000E98884782460F9844F40074761E056087
:1010E000002E02DDBAF1300FF0D00B998A453ED1C7
:1010F00044F0800406E00F99681CA9F1010944F44A
:1011000000740860B9696D1C761E0E988847824687
:101110003028F0D02BE00B998A4505D1200603D466
:1011200044F08004761E18E0504609F0ADFC08B388
:101130000DF11301761E44F400748B4508D2AAF118
:1011400030000BF8010B200607D5A9F1010003E0E0
:10115000200602D409F101008146A00502D50F99AD
:10116000681C0860B9696D1C0E9888478246002E7D
:10117000D1DC53E0002E51DDBAF1650F02D0BAF197
:10118000450F4BD1A00549D5B9696D1C24F44074B5
:10119000761E0E9888478246002E0CDD2B2804D040
:1011A000BAF12D0F07D144F48074B9696D1C0E9803
:1011B00088478246761EE00501D52D2100E02B21CF
:1011C00008F8011BCDF82C8021E00DF12901761ED5
:1011D00044F4007488450CD2AAF1300010F0FF00EE
:1011E00088F8000002D10B99884509D908F1010857
:1011F00006E0E00501D5244801E042F20F70814687
:10120000B9696D1C0E98884782460F980560002EBC
:1012100004DD504609F038FC0028D6D1F9690E9853
:101220008847FF208BF8000088F800000020069017
:1012300007904B466A4608A906A8FFF777FEA00567
:1012400002D46FF001002AE714F0240F0AD0E0075F
:1012500014D1DDE906123868031D3B600068C0E95F
:1012600000120BE0DDE90601FFF716FC0146E0077E
:1012700004D13868021D3A600068016028460EE714
:10128000000014400000F03FF1D8FFFFC1F30A5204
:10129000C1F3130140F2FF3341F480119A4202DAA4
:1012A00000200146704740F233439A42A2F2334293
:1012B00002DC5242FFF731BCFFF720BC064C074D61
:1012C00006E0E06840F0010394E807009847103416
:1012D000AC42F6D3FEF75CFF102102083021020871
:1012E0002DE9F34F8BB04FF0000801F10C000C46D4
:1012F0004FF0010B46460DF1080A01906269012189
:1013000001989047051E2DD0252D2CD0216A8847A5
:10131000C0B16269012101989047216A884700287D
:10132000F7D1411E62690198904700E0761CA169DF
:101330000B988847216A88470028F7D1E1690B9804
:101340008847DBE7A1690B9888470746A84201D187
:10135000761CD3E7E1690B9888477F1C02D1B8F16E
:10136000000F6FD047E1002762693D46394601987A
:1013700090472A2804D162690121019890470125EC
:10138000DFF888926269012101989047A0F130014D
:101390000A290AD24F45E5DC07EB870100EB41073C
:1013A000303FDFD445F01005ECE7E90601D46FF0DB
:1013B00000476C280AD04C2814D0682815D06A2819
:1013C0000DD074281CD07A281AD01DE06269012142
:1013D000019890476C2802D045F0040514E045F0D0
:1013E00002050DE045F020050AE06269012101983F
:1013F0009047682802D045F0080505E045F40065EF
:101400006269012101989047C4E9015765283DD0E0
:1014100019DC58287AD00CDC452837D004DC252884
:1014200026D0412831D131E046282FD047282CD171
:101430002CE05B2877D0612828D063287CD06428F2
:1014400023D15AE0D1E06F2848D008DC66281DD0AF
:1014500067281BD0692821D06E2816D127E0702874
:1014600045D0732868D0752847D078280DD14DE035
:10147000A1690B988847054625283FF469AFE169C3
:101480000B9888476D1C3FF46AAFB4E023466A4668
:101490006FF001000B99FFF7DDFD9FE045F0400084
:1014A0006060A80723464FF0000236D43EE0E8070C
:1014B0007FF447AF2068011D21600068290501D530
:1014C00006701BE7290701D5068017E7A90703D592
:1014D000F117C0E9006111E706600FE745F0400031
:1014E0006060A80723464FF0080216D41EE040F6BD
:1014F0000E0125EA0100606016E045F040006060E2
:10150000A80723464FF00A0207D40FE045F0400039
:101510006060A80708D5234610226FF001000B99E0
:10152000FFF72BFB5AE007E0234610226FF0010083
:101530000B99FEF771FF51E04FF000094F464B4603
:10154000632802D05B2807D041E02079C00601D48F
:101550000120A06001273AE06269012101989047CB
:101560005E2805D14FF0010962694946019890470C
:10157000216939B900210A46534643F82120491C04
:101580000829FADBB0B3216969B9C11700EBD16250
:1015900053110AEB830122F01F02821A01200B680B
:1015A000904003430B6062690121019890475D28D8
:1015B000E8D1B9F1000F09D00020514651F82020A0
:1015C000D24341F82020401C0828F7DB02AB22461A
:1015D00000976FF001000B99FEF7C4FF00280CDAAA
:1015E000401C08D1BBF1000F05D04FF0FF300DB00B
:1015F000BDE8F08FFFE74046F9E7E90701D108F1C0
:10160000010806444FF0000B78E60000CCCCCC0C6F
:101610002DE9F05F82460078002715468B460AF1D7
:101620000104B946302801D09DB113E014F8010B34
:101630000127782803D0582801D045B10AE00DB120
:10164000102D07D10027102514F8010B02E0082502
:1016500000E00A250026B0460EE005FB080005FB69
:1016600006F1012701EB10461FFA80F8B6F5803F1E
:1016700000D3B94614F8010B2946FFF770FA002889
:10168000EBDABBF1000F05D00FB1641E00E0544649
:10169000CBF80040B9F1000F06D008F033F8022172
:1016A0000160C81EBDE8F09F48EA0640FAE72DE950
:1016B000F04D00231A461B1A8A4103DB0020014625
:1016C000BDE8F08DC1F30A52C1F3130141F4801556
:1016D0004FF0000BD10702D100186D41521E0027B8
:1016E000044640F2FF11384601EB620A3E4680464E
:1016F000024600204FF48011FFF70FFAC219714122
:10170000BB1846EB0100B4EB030C75EB000C04D3E3
:10171000E41A65EB000517460E46241908F101008E
:101720006D4180463428E3DDF91946EB0600091BBC
:10173000A84103D24FF0FF32134601E000221346C6
:101740001BEB070046EB0A51BDE8F04DFFF763BB0A
:101750000EB540F2334202920022CDE90022134638
:10176000FFF768FB03B000BD70B58C1810F8015B83
:1017700015F0070301D110F8013B2A1106D110F82A
:10178000012B03E010F8016B01F8016B5B1EF9D12E
:101790002B0705D40023521E0DD401F8013BFAE7B4
:1017A00010F8013BCB1A921C03E013F8015B01F81F
:1017B000015B521EF9D5A142D8D3002070BD21B1E2
:1017C000826842F00102826003E0826822F0010236
:1017D000826070470021084A1168084A1140D0E928
:1017E00000231A4383681A43C3681A431143044A07
:1017F000C2F804137047000004230140E030FCFFEE
:1018000000200140F0B585B00646F1B20723012261
:10181000144800F061F800240FE0124800F0B8F816
:1018200000BF02210F4800F023F80028F9D00D482E
:1018300000F01AF82DF81400641C0A2CEDD30A21CC
:10184000684609F003FD0025032403E03DF8140079
:101850000544641C072CF9D3C5F38F07384605B03F
:10186000F0BD0000002001400146C86C80B2704706
:101870000246002013680B400BB1012000E000205D
:101880007047000030B50246002000235068104C1D
:1018900020400D790C6844EA05242043506090688C
:1018A0000C4C2040D1E903542C438D682C434D79D6
:1018B00044EA450420439060D06A20F470000C7D17
:1018C000641EE4B2234340EA0350D06230BD0000FE
:1018D000FFFEFFFCFDF7FFC0F0B504460D460020FB
:1018E0000021092D11DDE068A5F10A0606EB460787
:1018F000072606FA07F18843A5F10A0606EB460615
:1019000003FA06F10843E0600CE0206905EB4507A7
:10191000072606FA07F1884305EB450603FA06F1A8
:1019200008432061072A0FDA606B561E06EB860714
:101930001F2606FA07F18843561E06EB860605FAAF
:1019400006F10843606322E00D2A0FDA206BD61FF0
:1019500006EB86071F2606FA07F18843D61F06EB1B
:10196000860605FA06F10843206310E0E06AA2F15A
:101970000D0606EB86071F2606FA07F18843A2F13B
:101980000D0606EB860605FA06F10843E062F0BD97
:10199000816841F0804181607047000038B108499A
:1019A000096841F40001074AC2F8041306E004493B
:1019B000096821F40001034AC2F8041370470000CB
:1019C000042301400020014010B50221014801F02C
:1019D000CAFF10BD0004024010B50221014801F009
:1019E000C4FF10BD000402401CB50121102004F00A
:1019F00029FA4FF46040009001208DF80400002087
:101A00008DF8060001208DF8070003208DF80500F1
:101A10006946064801F0FEFE0020054908600549B8
:101A2000C1F8B8020249083108601CBD001002402C
:101A3000B40242420000424230B505460C46B4F5BD
:101A4000806F01DB40F2FF34294664F31F11084622
:101A500000F010F80120054908600A20FFF74FFA4E
:101A600000200349C1F8BC0230BD0000BC02424264
:101A70000000424200B5014600221AE001F00100D8
:101A800018B101200C4B186002E000200A4B1860CE
:101A90000A20FFF734FA0120074B1B1D18600A20AB
:101AA000FFF72DFA0020054BC3F8B8024908501C77
:101AB000C2B20E2AE2DB00BDB40242420000424242
:101AC00070B586B006460C462B48007807280CDC1B
:101AD000029820F07C7000F54000029026480178C2
:101AE000029861F3534002900BE0029820F07C7062
:101AF00000F18070029020480078029960F3534111
:101B00000291029820F4FC3000F5006002900298E7
:101B100020F4E0600290029820F0FF00029027E09D
:101B2000082C0EDD08208DF80E00002505E0317828
:101B30000DF10F004155761C6D1C082DF7D3083CA4
:101B40000DE0E0B28DF80E00002505E031780DF1D2
:101B50000F004155761C6D1CA542F7D3002401A847
:101B600000F0B0F8042803DB4FF0FF3006B070BD82
:101B7000002CD5D10020F9E7140E00203EB50B2033
:101B80008DF8030000208DF804008DF800008DF81A
:101B9000010001208DF8050000208DF802000748A3
:101BA0000290684600F082F804461C2C02DB4FF0DD
:101BB000FF303EBD00F04EF80020FAE7891C010816
:101BC00070B586B006460C46029820F07C7000F591
:101BD00030000290029820F460200290029820F4D5
:101BE000FC3000F500600290029820F4E060029062
:101BF000029820F0FF00029027E0082C0EDD08205C
:101C00008DF80E00002505E031780DF10F004155EB
:101C1000761C6D1C082DF7D3083C0DE0E0B28DF862
:101C20000E00002505E031780DF10F004155761CBE
:101C30006D1CA542F7D3002401A800F043F8042846
:101C400003DB4FF0FF3006B070BD002CD5D1002073
:101C5000F9E70000084809490861BB204870EE20F8
:101C600088704FF480604860002008708881486167
:101C700088600348886170475C60002038600020FD
:101C8000B305020800BFFEE770B505462E460024E6
:101C900006E006F10B00015D034882699047641C71
:101CA000B07AA042F5D870BD3860002010B5044667
:101CB0002146012000F038F810BD10B5012000F0D9
:101CC000B5F910BD10B504462146012000F02EFAEA
:101CD00010BD000000B585B06A460021104800F034
:101CE0007CFB9DF8130000EB40000E4901EB8000E7
:101CF0008078012808D09DF8130000EB400001EB2C
:101D000080004079012809D19DF8130000EB4000C4
:101D1000044A02EB800081686846884705B000BD30
:101D2000006400402C2A00207FB506460C46A078AF
:101D300020B9607910B9FD2004B070BDA0780128E9
:101D40003CD16079012839D1002534E005EB45000C
:101D5000B44901EB8000807801282AD105EB4500C9
:101D600001EB80004079012823D105EB450011F8F3
:101D70002000217888421CD105EB4500A94901EBE0
:101D8000800040786178884213D105EB4500A54971
:101D900001EB8000C078E17888420AD105EB45006C
:101DA000A04901EB800000792179884201D1FE2011
:101DB000C2E7681CC5B21C2DC8DB57E0A07801281B
:101DC00028D1607930BB002521E005EB450095491D
:101DD00001EB80008078012817D105EB450001EB6D
:101DE0008000407988B905EB450011F82000217882
:101DF00088420AD105EB45008A4901EB8000407812
:101E00006178884201D1FE2096E7681CC5B21C2D7E
:101E1000DBDB2BE0A07848BB6079012826D10025C8
:101E200022E005EB45007F4901EB80008078C8B9CE
:101E300005EB450001EB80004079012812D105EB4C
:101E4000450001EB8000C078E17888420AD105EBBB
:101E50004500744901EB800000792179884201D165
:101E6000FE2069E7681CC5B21C2DDADB00250FE0F7
:101E700005EB45006B4901EB8000807830B905EB3C
:101E8000450001EB8000407900B903E0681CC5B251
:101E90001C2DEDDB00BF1C2D01DBFF204CE78DF876
:101EA0000A5000208DF80B0001208DF80C00E6BBD5
:101EB000207800F00F004FF4204141EA4020617883
:101EC00001F00F0140EA4110E17801F00F0140EA12
:101ED00041002179C1F3C0010843ADF80000207929
:101EE000042101EB403080B2ADF802004FF46040B5
:101EF000ADF804000620ADF80600A078012806D150
:101F0000BDF804004FF6E0710843ADF804006079B5
:101F100001284CD1BDF8040040F01F00ADF80400CA
:101F2000BDF8060040F4604000E002E0ADF80600B5
:101F30003DE0012E3BD1207800F03F00710341EAE3
:101F4000C010617801F0070140EA0110E178C1F3A7
:101F500083010843ADF80000E0788007000C217988
:101F600001F0070140EAC120001DADF802004FF466
:101F70006040ADF804000620ADF80600A078012806
:101F800006D1BDF804004FF6F0710843ADF8040027
:101F9000607901280BD1BDF8040040F00F00ADF8C6
:101FA0000400BDF8060040F47840ADF806000020BB
:101FB000ADF8080001208DF80D00684600F0F6F835
:101FC00005EB4501174A02EB8101A0688860A07803
:101FD00005EB450102EB81018870607905EB450155
:101FE00002EB81014871207805EB450102F82100E0
:101FF000607805EB450102EB81014870E07805EB64
:10200000450102EB8101C870207905EB450102EB27
:102010008101087101220221034800F04BF9284692
:102020008AE600002C2A00200064004030B587B00A
:1020300005460121084603F005FF0121480603F08B
:1020400021FF4FF4C050059002208DF818000020A9
:102050008DF81A0003208DF8190001208DF81B005F
:1020600005A92F4801F0D6FB09220B212C4801F0CD
:1020700019FC09220C212A4801F014FC00208DF8DB
:102080000E008DF80F008DF810008DF811008DF8FE
:10209000120001208DF8130000208DF80A005DB9B0
:1020A0008DF80B0004208DF80C0000208DF80D0039
:1020B0001520ADF808000DE0012D0BD100208DF8A2
:1020C0000B0004208DF80C0000208DF80D000C2072
:1020D000ADF8080002A9134800F0F5F814208DF8B7
:1020E000040000208DF8050003208DF80600012073
:1020F0008DF8070001A803F0E7F800240CE00020A9
:1021000004EB4401084A02EB8101887004EB4401AE
:1021100002EB81014871641C1C2CF0D307B030BD68
:1021200000000240006400402C2A00202DE9F0410C
:1021300007460D464FF00008686820F0E0506860E0
:10214000686820F0604068602C4627B9606840F0FD
:10215000A050606005E0012F03D1606840F080600E
:102160006060042020720020607221460E4800F05A
:10217000ACF90646042E01D1BDE8F08101E008F17A
:1021800001083146084800F033FA012803D04FF621
:10219000FF708045F3D34FF6FF70804501D30520D3
:1021A000EAE73046E8E700000064004010B500218F
:1021B000837A012202FA03F13D4A126842F00102D9
:1021C0003B4B1A603A4A1C3212688A43384B1C3324
:1021D0001A60027BCAB9364A0C3212688A43344B01
:1021E0000C331A604288C38842EA0343304A4032C3
:1021F000847A42F834300288838842EA03432C4AC6
:102200004032847A02EBC4025360027B012A19D166
:10221000274A0C3212680A43254B0C331A60428855
:10222000038842EA0343224A4032847A42F8343037
:10223000C288838842EA03431D4A4032847A02EB13
:10224000C4025360C27A3AB9194A121D12688A430D
:10225000174B1B1D1A6006E0154A121D12680A432F
:10226000134B1B1D1A60028932B9114A14321268CD
:102270008A430F4B14331A600289012A06D10C4A93
:10228000143212680A430A4B14331A60427B012A43
:1022900006D1074A1C3212680A43054B1C331A60E8
:1022A000034A126822F00102014B1A6010BD0000BF
:1022B000006600401AB143690B43436102E0436981
:1022C0008B434361704730B50246002000231468F9
:1022D00024F002041460146844F00104146000E067
:1022E0005B1C546804F001041CB94FF6FF74A34250
:1022F000F6D1546804F001040CB900206CE08C792C
:10230000012C04D1146844F08004146003E01468C4
:1023100024F080041460CC79012C04D1146844F0BA
:102320004004146003E0146824F0400414600C7A44
:10233000012C04D1146844F02004146003E01468F4
:1023400024F0200414604C7A012C04D1146844F069
:102350001004146003E0146824F0100414608C7AF4
:10236000012C04D1146844F00804146003E01468DC
:1023700024F008041460CC7A012C04D1146844F0D1
:102380000404146003E0146824F0040414608C78DE
:10239000A407CD7844EA05640D7944EA05444D79F3
:1023A00044EA05540D886D1E2C43D461146824F052
:1023B00001041460002300E05B1C546804F0010475
:1023C0001CB14FF6FF74A342F6D1546804F0010427
:1023D0000CB1002000E0012030BD10B500F5D8732D
:1023E00003EB01131B6803F004031372137A53B950
:1023F00000F5D87303EB01131B6840F2FF7404EA85
:102400005353136009E000F5D87303EB01131B6805
:102410006FF0604404EAD303536000F5D87303EB14
:1024200001131B6803F00203537200F5D87303EB2A
:1024300001135B6803F00F03937200F5D87303EB8D
:1024400001135B681B0AD37400F5D87303EB011307
:102450009B68D37200F5D87303EB01139B681C0AC9
:10246000147300F5D87303EB01139B681C0C5473B1
:1024700000F5D87303EB01139B681B0E937300F5F3
:10248000D87303EB0113DB68D37300F5D87303EB48
:102490000113DB681C0A147400F5D87303EB0113F5
:1024A000DB681C0C547400F5D87303EB0113DB6874
:1024B0001B0E937421B9C36843F02003C36003E08B
:1024C000036943F02003036110BD10B502460020EC
:1024D000936803F08063B3F1806F00D110E09368DC
:1024E00003F00063B3F1006F01D1012008E09368AD
:1024F00003F08053B3F1805F01D1022000E004209B
:10250000042874D002F5C07303EB00131B6803F0BA
:10251000010402F5C07303EB00131C600B7A7BB956
:102520004B7A0C8843EA445302F5C07404EB001460
:102530002468234302F5C07404EB0014236010E008
:102540000B7A4C6843EAC4034C7A234302F5C07407
:1025500004EB00142468234302F5C07404EB001458
:1025600023608B7A03F00F038B7202F5C07303EBC9
:1025700000135B6823F00F0402F5C07303EB001334
:102580005C6002F5C07303EB00135B688C7A234335
:1025900002F5C07404EB001463608B7B1C064B7B5C
:1025A00044EA03440B7B44EA0323CC7A234302F539
:1025B000C07404EB0014A3608B7C1C064B7C44EAC3
:1025C00003440B7C44EA0323CC7B234302F5C07411
:1025D00004EB0014E36002F5C07303EB00131B6807
:1025E00043F0010402F5C07303EB00131C6010BD3F
:1025F00010B50246002321B1012907D002290FD1CD
:1026000009E090681D4C00EA04030BE090681C4C44
:1026100000EA040306E090681A4C00EA040301E0B3
:10262000002300BF00BF184C181BA34216D007DCC4
:1026300083B16FF08060184470B1022818D111E0A6
:10264000B0F5007F10D0114C204448B1B0F5003FE8
:102650000ED10BE002230DE000230BE0002309E084
:10266000002307E0012305E0012303E0012301E04B
:10267000002300BF00BFD8B210BD0000030000045B
:102680000003000800000310000100080001FFF72C
:1026900038B56946002000F031F80446002C02DA13
:1026A0004FF0FF3038BD9DF8000000F00F0001280A
:1026B00002D04FF0FF30F5E70121084600F049F85D
:1026C0001421022000F045F80221042000F041F816
:1026D0005021052000F03DF80A21142000F039F8BF
:1026E0000221152000F035F80021162000F031F805
:1026F0000021172000F02DF82046D3E770B50546DD
:102700000E46002000F033FDCA21002000F058FDE5
:10271000044614B94FF0FF3070BD45F08001002031
:1027200000F04EFD044614B94FF0FF30F4E70020EE
:1027300000F01DFDCB21002000F042FD14B94FF048
:10274000FF30E9E70121002000F0D4FC30700120C7
:10275000E2E770B505460E46002000F008FDCA21EC
:10276000002000F02DFD044614B94FF0FF3070BD7D
:1027700045F08001002000F023FD044614B94FF01D
:10278000FF30F4E73146002000F01AFD044614B98A
:102790004FF0FF30EBE7002000F000FD2046E6E7B9
:1027A0002DE9F14F2DED0C8B82B00E9D502D03D3F2
:1027B00050244FF0010808E0082D03D308244FF0FF
:1027C0000A0802E001244FF050089FED4C0B06F080
:1027D0009FFFB0EE409AF0EE609A2046FEF7E6F8D2
:1027E00041EC1C0B2846FEF7E1F841EC1D0B53ECC5
:1027F0001C2BFEF74DF841EC1B0BB0EE4B0AF0EE34
:102800006B0A06F085FFB0EE40AAF0EE60AA53EC2A
:10281000192B51EC1A0BFEF73BF841EC180BFEF7A5
:10282000D2F800900098042803DA0098C0F1040B55
:1028300001E04FF0000B5846FEF7B8F841EC1B0BD7
:10284000B0EE4B1AF0EE6B1A9FED2C0B07F044F92B
:10285000B0EE409AF0EE609A2846FEF7A7F841ECF9
:102860001A0B53EC192BFDF7A1FF41EC180BFEF7E7
:10287000C9F88246BAFBF4F704FB17A00190E80000
:10288000B0FBF4F9B9F17D0F01D200260AE0B9F1ED
:10289000960F01D2012605E0B9F1AF0F01D2022651
:1028A00000E00326BC210220FFF753FF08F0FF01E0
:1028B0000320FFF74EFFC5F307111820FFF749FF6C
:1028C0002A01019842EA5010C1B21920FFF741FFD6
:1028D0000198C00040EAD700C1B21A20FFF739FFC3
:1028E000780140EA8B003043C1B21B20FFF731FF73
:1028F00002B0BDEC0C8BBDE8F88F000000000000BA
:102900000000004070B504460D462946204605F0FB
:102910002BFE70BD70B500254FF4803400E0641EBE
:1029200024B1802003F084FE0028F8D014B90325D8
:10293000284670BD40F2FF5003F036FE2846F8E707
:102940002DE9F041064600274848056801E0474860
:10295000056805F045000028F9D005F0040030B105
:102960000327042003F020FE3846BDE8F08105F07F
:10297000010028B10127012003F016FE3846F4E7D4
:1029800003F050FEB04202D010273846EDE740F287
:10299000FF5003F009FE002003F06AFE04463448AD
:1029A000204008B93846E0E704F0004008B11C2098
:1029B000DBE704F0804008B10920D6E704F00050BE
:1029C00008B10A20D1E704F0805008B10B20CCE711
:1029D00004F0006008B10C20C7E704F0806008B183
:1029E0000D20C2E704F0807008B10E20BDE704F4AA
:1029F000000008B10F20B8E704F4800008B11020EF
:102A0000B3E704F4001008B11120AEE704F480101D
:102A100008B11220A9E704F4002008B11320A4E7AC
:102A200004F4802008B114209FE704F4003008B1BA
:102A300015209AE704F4803008B1162095E704F4D5
:102A4000004008B1172090E704F4804008B1182036
:102A50008BE704F4005008B1192086E704F0080061
:102A600008B11A2081E738467FE70000342C014086
:102A700008E0FFFD70B500251048046801E00F482C
:102A8000046804F045000028F9D004F0040028B1DF
:102A90000325042003F088FD284670BD04F00100E2
:102AA00028B10125012003F07FFD2846F5E740F21B
:102AB000FF5003F079FD2846EFE70000342C014079
:102AC00070B500250B48046801E00A48046804F06A
:102AD00045000028F9D004F0040028B103250420A3
:102AE00003F062FD284670BD40F2FF5003F05CFD2C
:102AF0002846F8E7342C01402DE9F04106460F4600
:102B00004FF000082248056801E02148056805F0FB
:102B100045000028F9D005F0040038B14FF0030853
:102B2000042003F041FD4046BDE8F08105F00100BE
:102B300030B14FF00108012003F036FD4046F3E7C5
:102B400003F070FDB04203D04FF010084046EBE7B1
:102B500040F2FF5003F028FD002003F089FD0446F9
:102B600004F4604018B9200C38804046DCE704F4D7
:102B7000005008B11320D7E704F4804008B11020BA
:102B8000D2E704F4004008B10F20CDE74046CBE780
:102B9000342C014070B500264FF480350F4804688E
:102BA00002E06D1E0D48046804F0450008B9002DD0
:102BB000F7D115B104F0040028B10326042003F076
:102BC000F3FC304670BD04F0400028B100264020E0
:102BD00003F0EAFC3046F5E73046F3E7342C0140D9
:102BE00010B504F015FC10BD0246094B9A4201D203
:102BF000084801E00648103801F000531BB1064BAD
:102C00000B40C36002E0044B0B4083607047000040
:102C100010640240006002407D0F7D0F21B1026808
:102C200042F00102026003E0026822F00102026049
:102C300070470000016821F001010160002101607E
:102C400041608160C1600161212141614A4988423E
:102C500004D13D21484A103A91608CE04649183130
:102C6000884205D14FF47461434A103A916082E082
:102C700041493031884205D14FF474113E4A103A2F
:102C8000916078E03C494831884205D14FF0746149
:102C9000394A103A91606EE037496031884204D178
:102CA0003649354A103AD16065E033497831884277
:102CB00004D13349304A103AD1605CE02E4990315A
:102CC000884204D12F492C4A103AD16053E02A4956
:102CD000A831884205D14FF03D51274A103AD160C2
:102CE00049E02949884204D13D21274A083A116028
:102CF00041E025491831884205D14FF47461224AD8
:102D0000083A116037E020493031884205D14FF44C
:102D100074111D4A083A11602DE01B494831884260
:102D200005D14FF07461184A083A116023E0164942
:102D30006031884204D11149134A121F11601AE010
:102D400011497831884204D10D490F4A121F116090
:102D500011E00D499031884204D10A490A4A121FF4
:102D6000116008E00849A831884204D14FF03D5174
:102D7000054A121F11607047106002403D0000209C
:102D8000400F002000003D201064024021B1026885
:102D900042F02002026003E0026822F0200202609A
:102DA000704710B501F080034BB122B1436943F085
:102DB0008003436103E0436923F08003436180297A
:102DC0000BD02AB1036801F01E042343036004E022
:102DD000036801F01E04A343036010BD10B5002278
:102DE0000268134B1A40CC680B6823434C69234399
:102DF0008C692343CC6923430C6A23434C6A2343E5
:102E00008C6A23434C6B23438C6B23431A4302602D
:102E1000426922F00702D1E90B3423431A4342618D
:102E20000B6943604B6883608B68C36010BD000012
:102E30003F801CF0704710B5044603E04FF47A70F1
:102E400000F005F8201EA4F10104F7D110BD70B503
:102E50004FF0E0256D6945434FF47A76B5FBF6F007
:102E60001BE04FF0E025A969B0F5FA7F04D94FF4D3
:102E7000FA74A0F5FA7001E00446002000BF4FF09C
:102E8000E025AA69914201D98B1A04E04FF0E025B0
:102E90006D690D44AB1AA342F1D30028E1D170BD96
:102EA00010B53DA002F05CF94FF480513E48FDF7AB
:102EB000E1F94FF480713D48FDF7DCF90021012074
:102EC00002F04AFB0021022002F046FB0021042010
:102ED00002F042FB0021052002F03EFB03F0D0F996
:102EE000002002F079F900203149087010213148A2
:102EF00000F039FDFEF768FD9FED2F0A072002F074
:102F000043FB9FED2D0A062002F03EFB9FED2A0AAF
:102F1000052002F039FB9FED280A042002F034FB63
:102F20004FF0FF320021FE2004F0A8FE282004F01C
:102F3000EFFF1420FFF77FFF102004F0E9FF782057
:102F4000FFF779FF02F0C2F81420FFF774FF9FED3E
:102F50001A0A032002F018FB0A20FFF76CFF9FED0E
:102F6000160A022002F010FB9FED130A012002F066
:102F70000BFB0021012002F04FF800200F490860F0
:102F80000F4908600F49C1F890020D49091D0860FA
:102F90000D49C1F88C0210BD446973706C617920D1
:102FA0004F46460A0D000000D8140020D824002007
:102FB0003C0000200000024000000000040000204F
:102FC00094824042000040420080404210B50021FF
:102FD000012002F0C1FA0021022002F0BDFA002116
:102FE000042002F0B9FA0021052002F0B5FA4FF4EE
:102FF0000061204800F0B9FC0121084602F00CF8FD
:1030000002F064F89FED1C0A022002F0BDFA3220A3
:10301000FFF711FF9FED190A012002F0B5FA3220E7
:10302000FFF709FFFEF7D8FC3220FFF704FF02F09C
:1030300055F80A20FFF7FFFE02F048F83C20FFF7A2
:10304000FAFE02F04BF86420FFF7F5FE02F018FBE1
:1030500002F0B6FA6420FFF7EEFE0021084A117074
:10306000084605F09BFB01200649086006A002F017
:1030700077F810BD00100240CDCC6C406666E63F8C
:103080000800002004000020446973706C617920FE
:103090004F4E0A0D000000002DE9F04706460F468E
:1030A00015469846DDE90849104800EB0410066013
:1030B0000E4800EB041087800C4800EB041085607C
:1030C0000A4800EB0410A0F80C800948C0F80090F2
:1030D000304600F00BFC284600F008FC204603F0C8
:1030E000EFF8204603F03EF9BDE8F087A4C60020C3
:1030F000640E00202DE9F04107460D46384603F0E6
:1031000007F9002615E005F09DFA384603F0D8F8D7
:1031100005F098FA384603F0B9F805F093FA60061E
:10312000040E384603F00EF908B1601CC4B2701CDE
:10313000C6B2082EE7DB384603F0C2F805F082FA83
:103140001DB1384603F00EF902E0384603F0E0F80E
:1031500005F078FA384603F099F805F073FA384626
:1031600003F0AEF805F06EFA2046BDE8F08110B528
:103170000446204603F0CCF805F064FA204603F03C
:1031800085F805F05FFA204603F0ECF805F05AFAEE
:10319000204603F095F805F055FA10BD10B5044629
:1031A000204603F0DFF805F04DFA204603F06EF8F4
:1031B00005F048FA204603F0ABF805F043FA10BDDD
:1031C0002DE9F04106460C460127002516E004F0E3
:1031D000800018B1304603F09BF802E0304603F05F
:1031E000C1F8304603F052F805F02CFA304603F0EF
:1031F00067F86006040E05F025FA6D1C082DE6D36D
:10320000304603F085F805F01DFA304603F03EF82D
:1032100005F018FA304603F095F800B10027304663
:1032200003F04EF805F00EFA3846BDE8F0810000D4
:10323000014948617047000000900240014608685B
:10324000C0F30D40704700B502460023106800F03F
:10325000004058B9106800F4004038B9106800F414
:10326000807018B11046FFF7E9FF0346184600BD0D
:1032700010B501E00BF006F806480068FFF7E3FF21
:103280000028F7D14020FFF7D3FF4FF48030FFF73D
:10329000CFFF10BD6C0E00201EB500210022009251
:1032A00001920292214A1268126802F0004282B131
:1032B000002200921E4A526902F0800222B180224E
:1032C0001B4B5A6100229A609DE81C0080E81C009C
:1032D0001EBD164A1268126802F40042B2B9134ABF
:1032E0001268126802F4807282B1104A1268126881
:1032F00002F4007252B10D4A12681268C2F30D4214
:10330000111F0A4A12689268019200E000210091A0
:10331000064A12680292054A1268D268034B1A6084
:103320009DE81C0080E81C0000BFD1E76C0E002067
:103330000090024010B50E480068012813D1082003
:1033400000F024F878B10120FFF775FD0821094845
:1033500000F000FB012803D100200749086002E0CB
:10336000012006490870082000F00AF810BD00008E
:1033700004000020000802406C0000200000002033
:103380000149086070470000143C014001460020DC
:10339000034A12680A400AB1012000E00020704789
:1033A000143C01401CB50121084602F05BFD0121DF
:1033B000182002F047FD4CF6F300009002208DF833
:1033C000040000208DF8060003208DF80500012080
:1033D0008DF8070069462C4800F01CFA4FF4F060A5
:1033E000009002208DF8040000208DF806000320D4
:1033F0008DF8050001208DF807006946234800F08C
:1034000009FA0C220521204800F04CFA0C22042174
:103410001D4800F047FA0C220B211B4800F042FA2D
:103420000C220621184800F03DFA0C22072116480C
:1034300000F038FA0C220E21134800F033FA0C2267
:103440000F21114800F02EFA0C2200210E4800F046
:1034500029FA0C2201210C4800F024FA0C22072141
:103460000A4800F01FFA0C220821084800F01AFA56
:103470000C220921054800F015FA0C220A21034804
:1034800000F010FA1CBD0000000C024000100240C9
:1034900010B5FFF787FF00F007F810BD014908706D
:1034A00070470000FFFF006000B59DB00620079048
:1034B000002008905020099000200A900B900C905A
:1034C0000D900220009000200190164800680290A4
:1034D000002003900490059006900E900F90082015
:1034E00010900020119012904FF400701490800101
:1034F00013900020159016904FF4805017904000C4
:1035000018904000199000201A9007A81B90CDF841
:1035100070D00EA800F022F80121002000F004F87D
:103520001DB000BD440E002051B18200A2F1C04286
:10353000126842F001038200A2F1C042136009E068
:103540008200A2F1C0421268034B1A408300A3F12B
:10355000C0431A6070470000FEFF0F0030B5002125
:10356000002200230468A400A4F1C0442168424C56
:103570002140D0E901452C43C5682C4305692C4303
:1035800045692C4385692C43C5692C43056A2C4346
:10359000456A2C43856A2C43C56A2C43056B2C4332
:1035A00021430468A400A4F1C04421608468082C6D
:1035B0000BD10468A400A4F1C044246844F0400581
:1035C0000468A400A4F1C04425600468641CA4003D
:1035D000A4F1C044226802F04042446B2468456B69
:1035E0006D6844EA0514456BAD6844EA0524456BF3
:1035F000AD8944EA0544456B2D8A44EA0554456B80
:103600002D7D44EA0564456BAD692C432243046873
:10361000641CA400A4F1C0442260C46AB4F5804FC5
:1036200020D10468A400A4F1C044D4F80431134CA0
:103630002340846B2468856B6D6844EA0514856BB0
:10364000AD6844EA0524856BAD8944EA0544856B81
:10365000AD692C4323430468A400A4F1C044C4F81A
:10366000043107E06FF070450468A400A4F1C04481
:10367000C4F8045130BD00008000F7FF0000F0CF17
:103680002DE9FC4107460D4600260024002000904D
:10369000019008205B490860102048604020886045
:1036A0000020C8604FF480600861084603F01EF8EF
:1036B0001020FFF745F9044614B12046BDE8FC810F
:1036C0005148008800044F49086037204860402076
:1036D00088600020C8604FF480600861084603F0ED
:1036E00005F83720FFF72CF904460CB12046E5E732
:1036F0004FF0FF304549086008204860302088605E
:103700000220C8600020086101204861084602F0DC
:1037100063FF00203B4908603320486040208860F8
:103720000020C8604FF480600861084602F0DEFFA8
:103730003320FFF705F904460CB12046BEE709E047
:103740004FF4001002F074FF20B102F0C9FF4DF8F1
:103750002600761C2E48006840F22A6108400028A6
:10376000EED0082002F064FF28B1082002F01CFF10
:1037700004242046A2E7022002F05AFF28B10220CA
:1037800002F012FF0224204698E7202002F050FFAA
:1037900028B1202002F008FF062420468EE74FF4CF
:1037A000007002F045FF30B14FF4007002F0FCFEF3
:1037B0000724204682E740F2FF5002F0F5FE009811
:1037C0000006009901F47F4140EA0120009901F4CC
:1037D0007F0140EA1120009940EA11606860019879
:1037E0000006019901F47F4140EA0120019901F4AA
:1037F0007F0140EA1120019940EA116028602046CB
:103800005CE7000008C40020300E00201CC400202B
:10381000342C0140F0B50A4600210023002400BFEB
:103820003DE0012505FA01F3156805EA03049C4211
:1038300034D105684F000326BE40B54305601579B5
:103840004E00B5400668354305601579012D02D05C
:103850001579022D16D185684F000326BE40B54369
:10386000856055794E00B54086683543856045686A
:1038700001268E40B5434560456896798E40B6B2C4
:1038800035434560C5684F000326BE40B543C5605B
:10389000D5794E00B540C6683543C560491C10292E
:1038A000BFD3F0BDF0B5002300244D07ED0E02FAA2
:1038B00005F3CE1000F1200555F826504E07F70EFF
:1038C0000F26BE40B543CF1000F1200646F8275022
:1038D000CE1000F1200555F8265045EA0304CE101D
:1038E00000F1200545F82640F0BD000070B5054602
:1038F0001649681A8D421AD009DC1548284480B14F
:10390000B0F5806F0FD0B0F5006F18D10DE0B0F5B5
:10391000806F0ED0B0F5006F0DD0B0F5406F0ED1B6
:103920000BE001240BE0022409E0042407E0082452
:1039300005E0102403E0202401E0402400BF00BF84
:103940000121204602F07EFA70BD0000000C02400A
:103950000000FEBF0246002013690B400BB101209E
:1039600000E00020704741837047018370470000EA
:1039700070B5002400F02AFBB54991ED000AF2EE83
:10398000040A20EE200ABCEEC00A10EE100A00F075
:10399000BDFC0A20FFF74FFA00F034FB4FF4FA7039
:1039A000FFF749FAAB48007818283DD2DFE800F06D
:1039B0000D1318210E141C20252B0C12262C272D3C
:1039C000313233343815161700BF00BF0120A24929
:1039D000087029E000BF00BF00BF00BF00BF00BFEC
:1039E00000209D4908701FE005209B4908701BE0DE
:1039F00000BF04209849087016E000BF00BF0920EE
:103A00009549087010E000BF00BF08209249087077
:103A10000AE000BF00BF00BF20208F49087003E00C
:103A200024208D49087000BF00BF8B48007818B172
:103A300089480078202804D18848006888490860AF
:103A400004E086480068400885490860824800789C
:103A5000042803D080480078242814D17F480068C7
:103A60008049096848434508C5F3080040B1680A21
:103A70007D49086008460068401C4002086016E066
:103A80007948056013E0754800687649096800FBCD
:103A900001F5C5F3090040B1A80A7349086008465A
:103AA0000068401C8002086001E06F48056030201B
:103AB00000F030FB002000F03FFB002000F03CFB5A
:103AC000002000F039FB002000F036FB122000F04F
:103AD00021FB63490988491EC1F3072000F02CFB34
:103AE0005F490978491EC8B200F026FB5D49098884
:103AF000491EC1F3072000F01FFB5A490978491EEF
:103B0000C8B200F019FB132000F004FB5349096808
:103B1000544A12685143080E00F00EFB4F490968E1
:103B2000504A12685143C1F3074000F005FB4B496E
:103B300009884C4A12885143C1F3072000F0FCFA6F
:103B400046490978474A12785143C8B200F0F4FA5E
:103B5000102000F0DFFA4048007800F0EDFA43480A
:103B6000007810B944F0010400E000BF404800783C
:103B700000B901E044F002043E48007800B901E0D9
:103B800044F004043C48007810B944F0080400E014
:103B900000BF172000F0BEFA204600F0CDFA152035
:103BA00000F0B8FA35490988491EC1F3072000F032
:103BB000C3FA32490978491EC8B200F0BDFA30494B
:103BC0000988491EC1F3072000F0B6FA2C4909788C
:103BD000491EC8B200F0B0FA2A490988491EC1F34B
:103BE000072000F0A9FA27490978491EC8B200F059
:103BF000A3FA162000F08EFA23490988491EC1F362
:103C0000072000F099FA20490978491EC8B200F04F
:103C100093FA1E490988491EC1F3072000F08CFA67
:103C20001A490978491EC8B200F086FA184909886D
:103C3000491EC1F3072000F07FFA15490978491E93
:103C4000C8B200F079FA282000F064FA70BD0000D4
:103C5000B80D0020E00D0020E10D0020BC0D00207B
:103C6000E40D0020C00D0020E80D0020DC0D002038
:103C7000DD0D0020DE0D0020DF0D0020CC0D00202A
:103C8000C80D0020C40D0020D80D0020D40D002048
:103C9000D00D00201CB50121082002F0D3F84FF40C
:103CA0008060009001208DF8040000208DF806004F
:103CB00003208DF8050001208DF8070069460248B1
:103CC000FFF7A8FD1CBD0000000C024010B50F203E
:103CD00000F020FA00F0ACF90446240200F0A8F944
:103CE0000443240200F0A4F90443240200F0A0F9E4
:103CF0000443204610BD10B504460E2000F00AFA19
:103D000000F096F9207000F093F9607000F090F9DF
:103D1000A07010BDF0B505460F462948007804286C
:103D200003D02748007824280CD12648006807FBD8
:103D300000F424480068B5FBF0F100FB115086B296
:103D4000344404E02048006807FB00F42C441F487A
:103D500000681F49096800FB0144202000F0DAF9DF
:103D6000200E00F0E9F9C4F3074000F0E5F9C4F3D0
:103D7000072000F0E1F9E0B200F0DEF9301200F0C7
:103D8000DBF9F0B200F0D8F90D480078042803D030
:103D90000B48007824280BD10A480068854203D2DA
:103DA000002000F0C9F906E0012000F0C5F902E0AA
:103DB000002000F0C1F9222000F0ACF9F0BD0000B5
:103DC000E10D0020E40D0020BC0D0020E80D0020D6
:103DD000EC0D00202DE9F04F95B04FF00009C846DA
:103DE000FFF756FBFFF756FF63A001F0B9F900F0AB
:103DF0005FFA02900298002807DA62A001F0B0F999
:103E00004FF0FF3015B0BDE8F08F00F0DFF80A206A
:103E1000FFF711F800F0F6F84FF4FA70FFF70BF81F
:103E2000FFF754FF07465A48B7FBF0F7C92F05D0F4
:103E300055A001F095F96FF00100E3E755A001F0FE
:103E40008FF9002000F040F9002418E0534951F8A0
:103E500024200B46611C33F8211042EA014000F097
:103E600071F94E4A611C52F821100A0A4B4BA11CF1
:103E700053F8211042EA012000F064F9E41C122CEE
:103E8000E4D3002000F009F900242AE000F0D0F883
:103E900005462D0200F0CCF805432D0200F0C8F8CD
:103EA000054300F0C5F80646360200F0C1F80643A7
:103EB000360200F0BDF80643AAB22046641C03A9EE
:103EC00041F820204FF47F4000EA062040EA1542E6
:103ED0002046641C41F82020320A2046641C41F828
:103EE0002020122CD2D300240BE003A850F8240089
:103EF0002A4951F82410884202D04FF0010902E00B
:103F0000641C122CF1D300BFB9F1000F31D024A0F2
:103F100001F026F9002426E003A850F824001F49E8
:103F200051F8241088421DD00320B4FBF0FAB4FBF2
:103F3000F0F100FB114000F1010B03A850F8240040
:103F40000090164850F824305246594618A001F007
:103F500007F90320B4FBF0F100FB11410120884078
:103F600040EA0808641C122CD6D348F010004042E6
:103F700048E7002046E7000047505520496E697425
:103F800020000000504C4C204E470A0D000000005D
:103F9000809698004F4B0A0D00000000B80F0208F1
:103FA00047505520534452414D204E470A0D0000C2
:103FB0002053256420413D25642C20573D25303475
:103FC0005820523D253034580A0D00001CB54FF4DE
:103FD0008060009001208DF8040000208DF806001C
:103FE00003208DF8050001208DF80700694604487C
:103FF000FFF710FC4FF480610148FFF7B4FC1CBDD3
:10400000000C02401CB54FF48060009000208DF839
:1040100004008DF8060003208DF8050001208DF8BE
:10402000070069460148FFF7F5FB1CBD000C024084
:1040300001480078704700000000016010B5044698
:10404000562000F067F8204600F076F810BD10B555
:104050000446572000F05EF8204600F06DF810BDD1
:1040600010B50446502000F055F8204600F064F8E2
:1040700010BD10B50446512000F04CF80120FEF7A9
:10408000E6FEC4F3074000F057F8C4F3072000F041
:1040900053F8E0B200F050F810BD10B504462320EC
:1040A00000F038F8200E00F047F8C4F3074000F0A5
:1040B00043F8C4F3072000F03FF8E0B200F03CF80A
:1040C000252000F027F810BD10B50446202000F090
:1040D00021F8200E00F030F8C4F3074000F02CF86F
:1040E000C4F3072000F028F8E0B200F025F8002023
:1040F00000F022F8002000F01FF8002000F01CF86B
:10410000222000F007F810BD014908707047000038
:104110000000016000B5034600BF0320FFF7BEF9B1
:10412000FFF786FF024682F002000028F5D1014821
:10413000037000BDFFFF0060014908707047000078
:1041400000000160010C034A1170010A1170107027
:1041500070470000000001600146054A106888426F
:1041600003D2C1F1FF32104400E0401A7047000052
:104170005C0D00202DE9F04707460520FDF742FBC6
:1041800082461120FDF73EFB80464FF496600AFB05
:1041900000F0B0FBF8F62048B0FBF8F94FF47A7065
:1041A000704390FBF9F600240AE004EB84001B49FD
:1041B00001EB800000691430B04200DD02E0641CB5
:1041C000052CF2D300BF052C02D1A01FBDE8F0875B
:1041D000002514E004EB8400104901EB800050F846
:1041E00025001438B04209DA04EB840001EB8000AA
:1041F00050F825001430B04200DD02E06D1C052DA2
:10420000E8D300BF062D01D1E81FDFE7601C38703E
:104210007D700120DAE7000050FB4A00101502080B
:1042200000B58DB00121084601F00CFE0121080205
:1042300001F038FE20200B9003208DF83000002084
:104240008DF833000BA91748FFF7E4FA01210802A3
:1042500001F038FE00214FF4807001F033FE0020A1
:1042600007900A9009904FF48030089007A8FDF756
:10427000B1FA002001908DF808008DF80900039034
:10428000059001208DF8180001A90748FDF7FAFAFA
:104290000120FDF783FB01210348FDF790FA0DB0E3
:1042A00000BD0000000002400020014000BFFEE70A
:1042B0001CB5124800214FF40073114ACDE90010DB
:1042C00091151046FEF7E8FEFEF7E2F90446012CD0
:1042D00004D100200B49086020461CBD0CF098FB5F
:1042E0000446601C10B94FF0FF30F6E706480CF0AA
:1042F00003FC01200349086000BFEEE7E9CD010897
:1043000000040240480E002080F0FA0210B5044676
:104310000648006818B9A0B2FEF742FA04E0044962
:1043200004FB01F00CF08CFB10BD0000480E0020D7
:10433000A08601002DE9F04104460F4616460020F4
:10434000FEF715FF21460020FEF73AFF05461DB98E
:104350004FF0FF30BDE8F08139460020FEF730FF16
:10436000054615B94FF0FF30F4E70020FEF7FFFED9
:10437000601CC1B20020FEF723FF054615B94FF0BF
:10438000FF30E7E701210020FEF7B4FE3070002087
:10439000FEF704FF0120DDE72DE9F04105460F4659
:1043A00016460020FEF7E3FE29460020FEF708FF30
:1043B00004461CB94FF0FF30BDE8F08139460020BB
:1043C000FEF7FEFE044614B94FF0FF30F4E7314625
:1043D0000020FEF7F5FE044614B94FF0FF30EBE77E
:1043E0000020FEF7DBFE2046E6E7000010B52DEDCD
:1043F000028BB0EE408A9FED070A28EE000ABCEE61
:10440000C00A10EE100A81B20A2001F011FABDECC8
:10441000028B10BD00007A441CB501214A2001F036
:1044200011FD4FF40060009001208DF80400002081
:104430008DF8060001208DF8070003208DF8050097
:1044400069461A48FFF7E6F94FF400611748FFF78D
:104450008AFA8020009001208DF8040000208DF859
:10446000060001208DF8070003208DF8050069463D
:104470000F48FFF7CFF980210D48FFF774FA0220AB
:10448000009001208DF8040000208DF80600012026
:104490008DF8070003208DF8050069460448FFF7F2
:1044A000B9F902210248FFF75EFA1CBD0010024074
:1044B000000402402DE9F04116480068431E1648EA
:1044C0000068421E0021084603F002FB1248006803
:1044D000461E10480068471E002515E000240EE027
:1044E00024B1B44202D00DB1BD4204D16FF07F407F
:1044F00003F01EFB02E0002003F01AFB641C0648D8
:1045000000688442ECD36D1C024800688542E5D304
:10451000BDE8F081C00D0020BC0D00202DE9F04168
:1045200043480068431E43480068421E0021084675
:1045300003F0CEFA00260AE0002703E03E4803F02D
:10454000F7FA7F1C3B4800688742F7D3761C38484F
:104550000068B6EB900FEFD3002524E0002403E0C1
:10456000354803F0E5FA641C32480068B4EB900F5C
:10457000F6D3002406E0002003F0DAFA002003F06E
:10458000D7FA641C2B480068B4EB900FF3D30024D7
:1045900003E0294803F0CCFA641C26480068B4EB19
:1045A000900FF6D36D1C22480068B5EB900FD5D361
:1045B000002524E0002403E01F4803F0B9FA641C3E
:1045C0001C480068B4EB900FF6D3002406E00020EE
:1045D00003F0AEFA002003F0ABFA641C1548006843
:1045E000B4EB900FF3D3002403E0134803F0A0FAD8
:1045F000641C10480068B4EB900FF6D36D1C0C4897
:104600000068B5EB900FD5D300260AE0002703E041
:10461000094803F08DFA7F1C064800688742F7D3EB
:10462000761C03480068B6EB900FEFD3BDE8F0812D
:10463000C00D0020BC0D00207F7F7F0070B5FD48BD
:104640000068431EFC480068421E0021084603F033
:104650003FFA002540E0002403E0002003F068FA60
:10466000641CF54800680521B0FBF1F0A042F4D8C5
:1046700004E06FF07F4003F05BFA641CEE480068D2
:1046800040000521B0FBF1F0A042F2D803E0002089
:1046900003F04EFA641CE848006800EB4000052176
:1046A000B0FBF1F0A042F2D804E06FF07F4003F0DD
:1046B0003FFA641CE048006880000521B0FBF1F07F
:1046C000A042F2D803E0002003F032FA641CDA487A
:1046D00000688442F7D36D1CD6480068B5EBD00F54
:1046E000B9D341E0002404E06FF07F4003F020FAEA
:1046F000641CD14800680521B0FBF1F0A042F3D85A
:1047000003E0002003F014FA641CCB48006840006A
:104710000521B0FBF1F0A042F3D804E06FF07F4038
:1047200003F006FA641CC448006800EB4000052151
:10473000B0FBF1F0A042F1D803E0002003F0F8F95B
:10474000641CBD48006880000521B0FBF1F0A04268
:10475000F3D804E06FF07F4003F0EAF9641CB64838
:1047600000688442F6D36D1CB24800684000B5EB87
:10477000D00FB7D340E0002403E0002003F0D8F9C5
:10478000641CAD4800680521B0FBF1F0A042F4D8EC
:1047900004E06FF07F4003F0CBF9641CA64800688A
:1047A00040000521B0FBF1F0A042F2D803E0002068
:1047B00003F0BEF9641CA048006800EB400005212E
:1047C000B0FBF1F0A042F2D804E06FF07F4003F0BC
:1047D000AFF9641C9848006880000521B0FBF1F037
:1047E000A042F2D803E0002003F0A2F9641C924832
:1047F00000688442F7D36D1C8E48006800EB4000CF
:10480000B5EBD00FB7D341E0002404E06FF07F4058
:1048100003F08EF9641C884800680521B0FBF1F0B4
:10482000A042F3D803E0002003F082F9641C824820
:10483000006840000521B0FBF1F0A042F3D804E08D
:104840006FF07F4003F074F9641C7B48006800EB54
:1048500040000521B0FBF1F0A042F1D803E00020B8
:1048600003F066F9641C7448006880000521B0FB01
:10487000F1F0A042F3D804E06FF07F4003F058F964
:10488000641C6D4800688442F6D36D1C694800685A
:104890008000B5EBD00FB7D340E0002403E0002048
:1048A00003F046F9641C644800680521B0FBF1F090
:1048B000A042F4D804E06FF07F4003F039F9641CA3
:1048C0005D48006840000521B0FBF1F0A042F2D83D
:1048D00003E0002003F02CF9641C5748006800EB4B
:1048E00040000521B0FBF1F0A042F2D804E06FF0E7
:1048F0007F4003F01DF9641C4F48006880000521CB
:10490000B0FBF1F0A042F2D803E0002003F010F970
:10491000641C494800688442F7D36D1C4548006810
:1049200000EB8000B5EBD00FB7D341E0002404E0EA
:104930006FF07F4003F0FCF8641C3F4800680521DD
:10494000B0FBF1F0A042F3D803E0002003F0F0F850
:10495000641C3948006840000521B0FBF1F0A0421A
:10496000F3D804E06FF07F4003F0E2F8641C3248B3
:10497000006800EB40000521B0FBF1F0A042F1D847
:1049800003E0002003F0D4F8641C2B48006880008A
:104990000521B0FBF1F0A042F3D804E06FF07F40B6
:1049A00003F0C6F8641C244800688442F6D36D1CEA
:1049B0002048006800EB40004000B5EBD00FB5D3B5
:1049C00045E0002403E0002003F0B2F8641C1A481C
:1049D00000680521B0FBF1F0A042F4D804E06FF0CC
:1049E0007F4003F0A5F8641C1348006840000521CF
:1049F000B0FBF1F0A042F2D803E0002003F098F8F9
:104A0000641C0D48006800EB40000521B0FBF1F08C
:104A1000A042F2D804E06FF07F4003F089F8641CF4
:104A20000548006880000521B0FBF1F0A042F2D8F3
:104A300008E00000C00D0020BC0D0020002003F0A5
:104A400077F8641C2A4800688442F7D36D1C294813
:104A50000068C0EBC000B5EBD00FB2D341E000243A
:104A600004E06FF07F4003F063F8641C20480068A6
:104A70000521B0FBF1F0A042F3D803E0002003F0E1
:104A800057F8641C1A48006840000521B0FBF1F09B
:104A9000A042F3D804E06FF07F4003F049F8641CB3
:104AA0001348006800EB40000521B0FBF1F0A04284
:104AB000F1D803E0002003F03BF8641C0C480068C8
:104AC00080000521B0FBF1F0A042F3D804E06FF0C4
:104AD0007F4003F02DF8641C054800688442F6D33B
:104AE0006D1C04480068C000B5EBD00FB7D370BD93
:104AF000BC0D0020C00D002070B52D480068431E7D
:104B00002C480068421E0021084602F0E1FF2948B7
:104B10000068C508002645E0002404E06FF07F40EF
:104B200003F006F8641CAC42F8D3002403E02248EA
:104B300002F0FEFF641CAC42F9D3002404E04FF6FF
:104B4000FF7002F0F5FF641CAC42F8D3002404E0CF
:104B50004FF47F4002F0ECFF641CAC42F8D3002419
:104B600004E04FF0FF1002F0E3FF641CAC42F8D306
:104B7000002404E04FF47F0002F0DAFF641CAC4232
:104B8000F8D3002403E0FF2002F0D2FF641CAC4203
:104B9000F9D3002403E0002002F0CAFF641CAC42F9
:104BA000F9D3761C024800688642B5D370BD000078
:104BB000C00D0020BC0D002000FFFF0070B51148A3
:104BC0000068431E10480068421E0021084602F09B
:104BD0007FFF00250FE0002408E04FF07F1002F077
:104BE000A7FF4FF4FE4002F0A3FF641C06480068D4
:104BF0008442F2D36D1C03480068B5EB500FEAD332
:104C000070BD0000C00D0020BC0D00202DE9F04754
:104C100004460D46164612480068431E11480068B7
:104C2000421E0021084602F053FF200440EA0520FE
:104C300040EA06094FF000080BE0002703E0484671
:104C400002F076FF7F1C074800688742F7D308F11F
:104C50000108034800688045EFD3BDE8F0870000F5
:104C6000C00D0020BC0D00202DE9F0411348006864
:104C7000471E13480068431E10480068421E00216A
:104C8000084602F025FF002612E000250BE0C5EBE8
:104C90000520B0FBF7F4200440EA0420044320463A
:104CA00002F046FF6D1C054800688542EFD3761C74
:104CB000034800688642E8D3BDE8F081BC0D0020BF
:104CC000C00D00202DE9F04113480068471E12482E
:104CD0000068431E11480068421E0021084602F089
:104CE000F7FE002512E0C5EB0520B0FBF7F4200429
:104CF00040EA04200443002603E0204602F018FFA7
:104D0000761C064800688642F7D36D1C024800688E
:104D10008542E8D3BDE8F081C00D0020BC0D002025
:104D200010B517480078012805D01648006810B162
:104D30001548006800B910BD14480068FFF70CFA68
:104D40001349144A127851F82210884200D2F2E72F
:104D500000F05EFA0D4908600E480078401CC0B2B1
:104D60000C4908700C490968884202D3002009499F
:104D700008700848007803F011FD00BFDBE7000071
:104D80001C000020040000204C0000201000002027
:104D9000840E0020080000200C00002010B51748E9
:104DA0000078012805D01648006810B11548006841
:104DB00000B910BD14480068FFF7CEF91349144A32
:104DC000127851F82210884200D2F2E700F020FA5F
:104DD0000D4908600E48007828B90E480078401E3A
:104DE0000B49087004E00A480078401E0849087022
:104DF0000748007803F0D2FC00BFDAE71C0000206F
:104E0000040000204C00002010000020840E002030
:104E1000080000200C00002010B509480078012887
:104E200002D00848006800B910BD0121082000F038
:104E3000F3F80021082000F0EFF800BFF4E70000CD
:104E40001C000020040000201CB50121062000F0F9
:104E5000F9FF0121082000F0F5FF4FF440400090D9
:104E600000208DF804008DF8060003208DF8050061
:104E700001208DF8070069460A48FEF7CBFC4FF485
:104E80004040009000208DF804008DF806000320BB
:104E90008DF8050001208DF8070069460248FEF7ED
:104EA000B9FC1CBD000802400004024070B500249B
:104EB0000025002651480068FFF74EF9142801D25A
:104EC000002070BD00F0A4F94C4908604C480078FF
:104ED0004C4908700846007800F0010020B100211C
:104EE000012000F099F801264648007800F0020001
:104EF00020B10021022000F08FF8012641480078FF
:104F000000F0040020B10021042000F085F8012603
:104F10003C48007800F0080020B10021082000F093
:104F20007BF8012616B16420FDF791FF4FF4004194
:104F30003548FEF70FFD08B944F001044FF48041F5
:104F40003148FEF707FD08B944F002044FF48041F0
:104F50002E48FEF7FFFC08B944F004044FF400416A
:104F60002A48FEF7F7FC08B944F008042548007801
:104F700000F0010018B10121084600F04DF8214869
:104F8000007800F0020018B10121022000F044F87E
:104F90001C48007800F0040018B10121042000F042
:104FA0003BF81848007800F0080018B101210820EB
:104FB00000F032F81648007820B1012809D0022804
:104FC00019D113E024B1012011490870114804607F
:104FD00011E010480068844204D1254602200C49A3
:104FE000087002E000200A49087004E014B90020AB
:104FF0000749087000BF00BFE8B262E7080E002052
:10500000F80D0020040E00200008024000040240B9
:10501000050E0020000E00207CB505460E46012D31
:1050200006D0022D09D0042D0CD0082D14D10EE08D
:10503000234C4FF4004000900EE0214C4FF4804090
:10504000009009E01F4C4FF48040009004E01D4C9C
:105050004FF40040009000BF00BF012E19D1012085
:105060008DF804008DF8060003208DF8050001205E
:105070008DF8070069462046FEF7CCFB009881B208
:105080002046FEF770FC1048007828430E4908704F
:1050900014E000208DF8040001208DF806000320A4
:1050A0008DF8050001208DF8070069462046FEF7BF
:1050B000B1FB05480078A843034908707CBD000097
:1050C0000008024000040240F80D002010B58021C5
:1050D0000148FEF748FC10BD0004024010B58021D5
:1050E0000148FEF742FC10BD000402402DE9F041EA
:1050F00006460F4614469846641C152E16D006DC4C
:10510000032E17D0052E10D0132E19D113E0232E05
:1051100012D0292E05D0392E12D1204602F038FFA8
:105120000EE0204603F04AF80AE000BFE0B202F0C9
:1051300073FF05E000BF00BF204603F083F800BF07
:1051400000BF384603F0FAF8002504E018F805001F
:1051500003F0F4F86D1C601EA842F7DCBDE8F08196
:105160000FB47CB5052507A801901948019A069946
:1051700004F09EFA06460020019016490870034686
:10518000721C1349009028460BF055F9002803DAE9
:10519000A81F7CBC5DF814FB002408E0641C642C90
:1051A00002DD6FF00100F4E70120FDF744FE09483D
:1051B00000780328F2D107480069407845F01001D3
:1051C000884202D06FF00100E3E70020E1E7000031
:1051D000C86600203860002010B50446012C02DDAE
:1051E0004FF0FF3010BD204600F0BAFBFAE770B573
:1051F00004460D462946204600F040FC70BD10B51F
:1052000004460A2C00D10224204600F043FD10BDC4
:1052100001480068704700005C0D002000BFFEE7F9
:105220002DE9F04FABB004460D4616461F46DDE9AA
:1052300036ABDDE934891648406A18B11548007864
:10524000012804D14FF0FF302BB0BDE8F08F802152
:105250000BA8FBF70FF82B4622460FA10BA88DE8F1
:10526000C00704F011FA1422124906A8FAF7E9FF60
:105270000BA80790CDF820B038980A904FF4FA6048
:105280000023052206A9009001480AF0B9FDDBE7DA
:10529000B49F0020B07D002025642C256424256463
:1052A00024256424256424232530365824256424A9
:1052B00000000000A00F0208704710B54FF4C06056
:1052C00000F03EF810BD000070B5002100230F2251
:1052D000C4781CB3174C246804F4E064C4F5E0649B
:1052E000C4F30721C1F10404E3B20A4144789C40AD
:1052F000E1B28478144021430C07210E0E4C05784E
:105300006155047804F01F050124AC4005786D1147
:10531000AD0005F1E025C5F8004109E0047804F08E
:105320001F050124AC40054D0678761145F826404E
:1053300070BD00000CED00E000E400E080E100E062
:1053400002490143024A1160704700000000FA055B
:105350000CED00E01CB50121032000F073FD4FF4BB
:105360004040009001208DF8040000208DF80600D8
:1053700001208DF8070003208DF8050069461A48C2
:10538000FEF748FA2020009001208DF8040000204C
:105390008DF8060001208DF8070003208DF8050028
:1053A00069461248FEF736FA002011490860114993
:1053B000C1F8BC0210490860FCF716FB00210A2066
:1053C00000F036FA4FF47A710B2000F031FA002128
:1053D000062000F02DFA0021072000F029FA002114
:1053E000082000F025FA1CBD000402400000024025
:1053F000B882404200804042940240420B4800780C
:1054000010280FD00948007811280BD007480078E1
:10541000122807D005480078132803D003480078E5
:10542000142801D1012070470020FCE7E00D002086
:10543000012080F3138800BF00BF00BF00BF00BF82
:1054400000BFBFF34F8F00BF00BF00BF0948006817
:1054500000F4E06008490843001D0649086000BFE9
:1054600000BF00BFBFF34F8F00BF00BF00BF00E011
:1054700000BFFDE70CED00E00000FA052DE9F0416A
:1054800007460E4601250020304908702B460322AE
:1054900008210BF032F8002802DAA81EBDE8F081DE
:1054A000002408E0641C642C02DD6FF00100F5E7C5
:1054B0000120FDF7C0FC254800780328F2D12348DD
:1054C0000069407845F01001884202D06FF0010079
:1054D000E4E71E48006902891C48006900F10A01DE
:1054E0003846FAF7AEFE0020184908702B46022213
:1054F0000B210BF002F8002802DA4FF0FF30CDE765
:10550000002408E0641C642C02DD6FF00100C5E794
:105510000120FDF790FC0D4800780328F2D10B48DC
:105520000069407845F01001884202D06FF0010018
:10553000B4E70648006902890448006900F10A01DD
:105540003046FAF77EFE0020A8E700003860002011
:1055500010B5FCF713FB10BD70B506460D46701E66
:10556000C4B2082C02DB4FF0FF3070BD052C01DB0C
:10557000601CC4B2012D02DD6FF00100F5E7294681
:10558000204600F0B5FAF0E770B52DED028B054628
:10559000B0EE408A681EC4B2082C04DB4FF0FF3026
:1055A000BDEC028B70BD042C03D1B1EE480AB0EE05
:1055B000408AB0EE480A204600F0ECFAF0E700001E
:1055C0001CB52A48007820B929A0FFF7C9FD06F0CC
:1055D000EDF84FF0FF320021FE2002F04FFB4FF0BC
:1055E000FF328021C42002F049FB4FF0FF327721C7
:1055F0003A2002F043FB4FF0FF320021352002F049
:105600003DFB4FF0FF322021532002F037FB4FF0DB
:10561000FF32FF21512002F031FB4FF0FF32FF211A
:10562000632002F02BFB4FF0FF30532101230022B7
:10563000CDE9001011462A2002F020FB4FF0FF3088
:10564000532101230022CDE9001011462B2002F046
:1056500015FB112002F05CFC7820FDF7ECFB292003
:1056600002F056FC3C20FDF7E6FB1CBD1D000020AF
:10567000616C6C20636F646520696E69740D0A004B
:1056800038B54FF0FF322021FE2002F0F7FA4FF03C
:10569000FF325A21F42002F0F1FA4FF0FF32592183
:1056A000F52002F0EBFA4FF0FF322021FE2002F04D
:1056B000E5FAEC2002F04AFA8DF800009DF800406F
:1056C0009DF8001010A0FFF74BFD04F0030020B17F
:1056D000012806D003280CD107E000200E490870ED
:1056E0000BE001200C49087007E002200A4908700D
:1056F00003E0FF200849087000BF00BF064801789A
:1057000006A0FFF72DFD38BD307845433D307825A4
:105710003032780D0A0000001D0000204F54505F09
:1057200074696D65733A25640A0D000070470000C6
:1057300010B5FDF7B5FB08A1012000F029F806A17E
:10574000022000F025F804A1032000F021F802A1B6
:10575000042000F01DF810BD2020202000000000D3
:1057600010B502F0A7FF0020064908700120064985
:105770000860002005490860FDF728FC00F026FCC1
:1057800010BD0000080000204C0000207000002028
:105790002DE9FC4104460D460427012C02D10720C7
:1057A000019012E0022C02D1082001900DE0032CA0
:1057B00002D10920019008E0042C02D10A200190B6
:1057C00003E04FF0FF30BDE8FC810020174908706E
:1057D0002846FAF782FD00F101082B46012201A9B3
:1057E0003846CDF800800AF026FE002802DA4FF095
:1057F000FF30E8E7002608E0761C642E02DD6FF03B
:105800000100E0E70120FDF716FB084800780328B7
:10581000F2D106480069407847F01001884202D072
:105820006FF00100CFE70020CDE7000038600020D6
:1058300070B52DED048B05460C46A81F062818D21E
:10584000DFE800F02D49658103182046FBF7AEF82C
:1058500041EC190B9FED3E0B53EC102BFBF718F8A6
:1058600041EC180BFBF7CEF886B231460220FCF76C
:10587000E3F868E02046FBF799F841EC190B9FED3F
:10588000340B53EC102BFBF703F841EC180BFBF730
:10589000B9F886B231460120FCF7CEF853E0ACB13E
:1058A00004F5B970FBF771F841EC190B9FED2A0B69
:1058B00053EC102BFAF7ECFF41EC180BFBF7A2F8B6
:1058C00086B231460320FCF7B7F803E0002103203D
:1058D000FCF7B2F837E0ACB104F5B970FBF755F856
:1058E00041EC190B9FED1C0B53EC102BFAF7D0FF7A
:1058F00041EC180BFBF786F886B231460420FCF722
:105900009BF803E000210420FCF796F81BE0ACB103
:1059100004F5B970FBF739F841EC190B9FED0E0B4C
:1059200053EC102BFAF7B4FF41EC180BFBF76AF8B5
:1059300086B231460520FCF77FF803E00021052000
:10594000FCF77AF800BF00BFBDEC048B70BD00000F
:10595000000000000000044000000000008027401C
:1059600031B5062515489DF8001001700020144936
:1059700008702B460122002110480AF0BEFD0028C5
:1059800001DAE81F38BD002408E0641C642C02DD45
:105990006FF00100F6E70120FDF74DFA08480078A6
:1059A0000328F2D106480069407845F0100188428A
:1059B00002D06FF00100E5E70020E3E75C6400201F
:1059C0003860002070B5054602262A4880F8C45089
:1059D00080F8F85000202849087033460122C4217D
:1059E00024480AF08AFD002801DAF01E70BD002468
:1059F00008E0641C642C02DD6FF00100F6E7012072
:105A0000FDF719FA1C4800780328F2D11A480069FA
:105A1000407846F01001884202D06FF00100E5E7BF
:105A200000201549087033460122F82111480AF078
:105A300064FD002802DA4FF0FF30D7E7002408E0C9
:105A4000641C642C02DD6FF00100CFE70120FDF73C
:105A5000F2F9094800780328F2D107480069407834
:105A600046F01001884202D06FF00100BEE700202E
:105A7000BCE700005C64002038600020F3B581B012
:105A80000C4604269DF80400072801DB701FFEBDAC
:105A90000020164908702046FAF71FFC471C2346D1
:105AA000012201A9304600970AF0C5FC002802DA5D
:105AB0004FF0FF30EBE7002508E06D1C642D02DDA0
:105AC0006FF00100E3E70120FDF7B5F90748007822
:105AD0000328F2D105480069407846F01001884259
